:020000040000FA
:100000007004202095010000990100009B01000070
:1000100000000000000000000000000000000000E0
:100020000000000000000000000000009D01000032
:1000300000000000000000009F010000A10100007E
:10004000A3010000550D0000411B0000A3010000AA
:10005000A3010000A3010000A3010000A301000010
:1000600000000000A3010000A30100000000000048
:1000700000000000A3010000A3010000A301000094
:10008000A3010000151B0000A3010000A301000054
:10009000211B0000A3010000000000000000000080
:1000A000A3010000A3010000000000000000000008
:1000B000A301000000000000A3010000A301000054
:1000C00000F002F800F03AF80CA030C80838241804
:1000D0002D18671EA246AB4654465D46AC4201D180
:1000E00000F02CF87E460F3EB6460FCC0126334278
:1000F00000D0FB1A3343A246AB4618470428000041
:100100001428000000000000002300240025002621
:10011000103A01D378C1FBD8520700D330C100D5C3
:100120000B60704710B5642902D100F093F810BD40
:10013000002010BD1FB51FBD10B510BD00F084FB21
:100140001146FFF7F7FF01F0A3FD00F09CFB03B49D
:10015000FFF7F2FF03BC00F0F3FB000070B50546AB
:100160000C46164602E00FCC0FC5103E102EFAD2F8
:10017000082E02D303CC03C5083E042E07D301CCBE
:1001800001C5361F03E021782970641C6D1C761EA2
:10019000F9D270BD06480047FEE7FEE7FEE7FEE73E
:1001A000FEE7FEE703480449024A044B704700009B
:1001B000C100000070032020700420207003202064
:1001C0000FB41CB5074B06AA7B44694600900598FE
:1001D00000F0BDFA0020694600F0CCFA1CBC08BC57
:1001E00004B01847A9050000F8B50E4604460020E3
:1001F00020622046E1688847002829D0252802D0BF
:100200006268A16820E0E168204600278847050071
:100210001ED028464138192802D80127FF02203570
:100220003246204627602946FFF77CFF002808D089
:10023000012804D0F61DF608F6000836D9E7361D69
:10024000D7E762682846A1689047206A401CCFE73C
:10025000206AF8BDF7B5002575291068009914A625
:1002600011D0C046C046002802DA404211A608E07C
:10027000009909688A0701D50FA602E0490704D54D
:100280000EA6012501E0C046C046009F0024243789
:1002900004E000F074FA30313955641C0028F8D1BC
:1002A0002B4632462146009800F0F4F9FEBD0000CE
:1002B000000000002D0000002B00000020000000C6
:1002C000F8B5042A2CD3830712D00B78491C03708D
:1002D000401C521E83070BD00B78491C0370401C36
:1002E000521E830704D00B78491C0370401C521E19
:1002F0008B079B0F05D0C91ADF002023DE1B08C91E
:100300000AE0FFF72BFFF8BD1D4608C9FD401C465B
:10031000B4402C4310C0121F042AF5D2F308C91AA6
:10032000521EF0D40B78491C0370401C521EEAD4B4
:100330000B78491C0370401C012AE4D40978017031
:10034000F8BD01E004C0091F0429FBD28B0701D5C9
:100350000280801CC90700D00270704700290BD0B2
:10036000C30702D00270401C491E022904D3830730
:1003700002D50280801C891EE3E70022EEE70022FE
:10038000DFE770477047704730B50346CA02400D3B
:100390001043164D164C0A1502D02043002A06DBE6
:1003A000AA1A002A12DDD040FF2A0BDC30BD52050C
:1003B000520D01D140004008AA1A07D4D040404253
:1003C000FF2A01DD002030BD0028FCDD4A00002BA3
:1003D00001D0012000E00020101801225205D04277
:1003E000F0D8C817C043604030BD00001E040000B4
:1003F000000000801F22030C02D10F22000402D053
:10040000030E03D004E00020014670470002083AC2
:10041000030F01D10001121F830F01D18000921E32
:10042000002801DB4000521E120551184205C0127F
:10043000411810467047C10FC90700D04042012241
:1004400092071143D6E701218907D3E7F0B58B4C1A
:100450000F09254689B0BD437BD01D092646AE4312
:10046000FAD00E465E402740F60F3E43254071D03D
:1004700024012142FBD0FF24AD19A4042D1B0395B8
:1004800001252D05DB02DB0AC9022B43C90A2943DA
:100490001E010901040F130F050121431701880BE9
:1004A000820391432D098C46A90B1E438A03954371
:1004B000B30B9A0396433F09BA0B9403A7430296E2
:1004C0002E467E430497B6464E19D7190C46019620
:1004D000544305977E43371B7646BF1B3601B6460D
:1004E000BE0B361900967646BC043719009C01D322
:1004F000641C00946400002F01D001263443029E46
:10050000049F754366467E430496760034196E0058
:1005100034190094029C019E1C196643751BAE465B
:10052000069465464519059C05956C4359437546E7
:100530000891691A0191049E01465143A41B04913C
:10054000611A009C0791E10605D06109012211435F
:1005500002E072E06EE06109089D00272C0A2D067A
:100560006918049D7C412A0A2D066918019D624183
:10057000AC0DAD026D185441079A910D92025519B8
:100580006141029A644658435443069B059A5A4374
:10059000121A131B9A0E9B015B187A41010B00057E
:1005A000C3185141220A200644195A419A4200D2E6
:1005B000491C01204002814203D315230226F64341
:1005C00002E014230326F6432020C51AA94017464B
:1005D000AF40DA400A4320460399D8400914731803
:1005E00019055118039A3843D2075140AC4009D03D
:1005F0000122944006D30022401C5141002C01D11D
:10060000400840001E4A934212D3012203989206EA
:10061000904207DB0520400709181A480143C01221
:10062000414004E0032040070818C10FC90700201B
:1006300009B0F0BD0020F107FAE705180C464C415F
:1006400011486D42A04115D394181A465A410E48DC
:10065000644290410ED301204A004005824209D3F2
:100660005A00824206D35940C90F084AC9070020E0
:100670001143DDE700200649DAE700000000FF072C
:10068000FE070000FFFFFF7F0000E0FF0000F07F9B
:100690000000F87FFFB504460D4681B0243000907D
:1006A0002168880604D51022E0699143216000E0AA
:1006B0000120A84201DD471B00E000270498A16942
:1006C0007A191018081AA0612078C00602D42046B2
:1006D000C046C046002608E003986268A168805DB5
:1006E0009047206A401C761C206204988642F3DB07
:1006F0002078C0060AD52046C046C04606E062689B
:10070000A16830209047206A401C206238467F1E36
:100710000028F4DC07E000986268A168405D90471B
:10072000206A401C206228466D1E0028F3DC20460B
:10073000C046C0462078000602D5022005B0F0BDB4
:100740000120FBE701694A1C02610878704700B587
:100750008FB00291002105910549019379440391DD
:10076000114604906846FFF73FFD0FB000BD000042
:10077000E5FFFFFF0A681070521C0A6070470146CF
:100780008008081A02091018020A1018020C101822
:10079000C008820012185200891A01E0401C0A3970
:1007A0000A29FBD270470000F8B5264C4E00069D82
:1007B000A6420AD8A64201D1002806D15E00A64270
:1007C00003D8A6420AD1002A08D00D2424042542C9
:1007D00033D02946002000F05EF8F8BD0C461C43DB
:1007E00011D4994207D0C81A02D3EFF30080F8BDA4
:1007F000EFF30080F8BD801A02D3EFF30080F8BD5C
:10080000EFF30080F8BD09242407E5008B4207D0F0
:10081000581A02D3EFF3008006E0EFF3008007E000
:10082000101A03D3EFF30080A04303E0EFF300803E
:10083000A043284380F30088F8BD009500F042F8FB
:10084000F8BD00000000E0FF754600F045F8AE4638
:10085000050069465346C008C000854618B020B55B
:10086000FFF7A0FC60BCB64600260027C0C5C0C587
:10087000C0C5C0C5C0C5C0C5C0C5C0C5403D49088C
:1008800049008D46704710B50446C046C046204614
:10089000FFF75DFC10BDC80212D54803400F0028C9
:1008A00004D0C803C043012188407047EFF30080A3
:1008B0000001000903210907084380F300887047FD
:1008C0000020704710B500200249029A00F008F895
:1008D00010BD00000000F87F004870470000202095
:1008E00010B50C461107090F092904D00A290AD0AE
:1008F00008290CD104E011460820FFF7CCFF06E0E0
:10090000510606D501E0510601D50120C007214658
:1009100010BDD10607D501010909CC084907000E11
:100920000006044309E0410F20024907000A014381
:10093000200E00061D22D14101430846E7E70000D2
:1009400001491820ABBEFEE72600020070470000F8
:10095000B0B50A78032313400B4A84580B4D254049
:10096000EB18A92424061B198350072212064B6892
:1009700013401124240205599543EA180251001925
:1009800049780161B0BDC04608080000FCFFFF00C7
:10099000811E091F00BFFCD2704770B50A780C2376
:1009A0001A400124240305196E689E43B2186A6038
:1009B000497807221140035993435918015170BDDA
:1009C000F0B584B0012422022A4B196803929143A6
:1009D000196049490D686D04FCD5457E25409E6926
:1009E000A64374199C612024045D03252C40DE6914
:1009F000AE433419DC61204C256805262660466A22
:100A000037681F6276685E6207262E402660C469DA
:100A10007F252D02DE69AE436406640C3419DC6167
:100A20000768456882680092C66802690192426957
:100A300002929A69114C14403A07120B2D03ADB281
:100A4000AA183243009D2D072D0D1543019A154319
:100A5000029A1543007E2843094A02401019986102
:100A60001868039A1043186008688005FCD504B024
:100A7000F0BDC04608010B40001340408D00F0FF60
:100A800072FF0F00F0B5124B1D46083D2E68012481
:100A9000A6432E600326360330401F68B74338183C
:100AA00018601868FF26B043C9B24018186028685B
:100AB0002043286018682107002A06D008431860E0
:100AC0000D480168C905FCD5F0BD88431860F0BD2C
:100AD00010010B4007498860074802689202FCD564
:100AE000012212040B6813430B600168C906FCD590
:100AF0007047C04604010B4004020B40F0B57A4A2F
:100B000082183B4BC31808794E793A4D784C002E29
:100B100023D0202804D00526F601002803D003E0C6
:100B2000354E002800D18826576F2F40374357672E
:100B3000976F2F4037439767566B26405663966BE7
:100B4000264096630026566596658F26F6435F68B5
:100B500037405F609F6837409F608E790968202822
:100B60000BD0002819D1491E5160D76E2F40882123
:100B70000F43D7661746703719E0491E5160D16E92
:100B800029401D4F3943D166116F29403943116700
:100B900001214907194D174609E049085160D76EF0
:100BA0002F400521C9010F43D766174670373C68AF
:100BB0002C400C433C60D16A4D4C2140D162116BFA
:100BC000214011630021D16411658F21C943D46F85
:100BD0000C40D4671C680C401C600643BD203040AC
:100BE0001168074B0B40C018801C1060F0BDC04658
:100BF0008418000024493E0001040000FFFFFFCFDD
:100C00004000FFCFB0B54A68364BC250364A801814
:100C10000A78222A58D8930001A4E3589F46C04678
:100C2000BF0C0000C90C0000BF0C0000C90C000084
:100C3000C90C0000C90C0000C90C0000C90C000060
:100C4000C90C0000C90C0000C90C0000C90C000050
:100C5000C90C0000C90C0000C90C0000C90C000040
:100C6000AD0C0000C90C0000AD0C0000C90C000068
:100C7000C90C0000C90C0000C90C0000C90C000020
:100C8000C90C0000C90C0000C90C0000C90C000010
:100C9000C90C0000C90C0000C90C0000C90C000000
:100CA000AD0C0000C90C0000AD0C000003231B07B5
:100CB00004689C4301235B07E318036004E00323FB
:100CC0001B0704689C4304600B69C360CB68074C36
:100CD0001C40C36A064D1D402B19C362097A11439B
:100CE0000160B0BD0818000004180000777702000A
:100CF0008888FDFF10B507239B04194092008018D7
:100D0000024A84589C436118815010BD301800007D
:100D100010B5029CA400001911431943014A8150E7
:100D200010BDC0465018000092008018014A815042
:100D30007047C0461018000010B501221203831836
:100D40000C789C604B7883508978014A815010BDA3
:100D50000C110000F0B503208104364810380568F6
:100D60000D40812043043448103804681C40002D95
:100D700015D0C548076800680126F20495422CD0BA
:100D8000B20495420BD1000301D50022D6432B4A71
:100D90005568C0171768BE19166068415060002C6E
:100DA0003FD02748066807680125680484422AD096
:100DB0002A06944235D106400022D043002E044634
:100DC00000D01446002E00D028461C4AD5689668EC
:100DD000301890606541D56023E00126B0040740DB
:100DE0000020C543002F2A4600D00246002F00D025
:100DF00035461248466807687D19056056414660C9
:100E0000002CCED10DE0F80102D50022D44300E041
:100E100001240A4AD568C01796683419946068415D
:100E2000D060044A106808431060034908681843FA
:100E30000860F0BD48300A4048100A408800202071
:100E400080130A40B0B504880D88AC4201D9012452
:100E500003E01588AC4201D200241C8044884D88F0
:100E6000AC4201D9012403E05588AC4201D20024F0
:100E70005C8084888D88AC4201D9012403E0958888
:100E8000AC4201D200249C80C488CD88AC4201D9F8
:100E9000012403E0D588AC4201D20024DC8004891F
:100EA0000D89AC4201D9012403E01589AC4201D27D
:100EB00000241C8144894D89AC4201D9012403E0FE
:100EC0005589AC4201D200245C8184898D89AC4271
:100ED00001D9012403E09589AC4201D200249C8110
:100EE000C089C989884201D9012003E0D18988429B
:100EF00001D20020D881B0BDF0B587B00191059036
:100F00000120C10304910104039181040291002690
:100F1000A74FA94BA94CAA4AF10706D10499196019
:100F2000B10706D50399196105E004991961B10764
:100F3000F8D4039919607107069603D402999D4B62
:100F4000196002E002999B4B196100231D46396824
:100F50000143396001027E680E437E602668002EE0
:100F6000FCD17E688E437E603968814339601168A8
:100F700089B2CB18691C072D0D46E8D30721069EC0
:100F8000891B4900DB08059D6B52761C082E8A4B95
:100F9000C2D110220198059C2146FFF791F9AB20A0
:100FA000205C411E884107B0F0BDC046A821405CCE
:100FB00070470000F0B581B00120020532490B688E
:100FC0001340324C02D12288521C00E000222280C1
:100FD000002B04D12E4C2578002D00D120702D4CF3
:100FE0002578002D0BD12C4E3578294F3F78012FD5
:100FF00002D120706D1C3570EDB2022D13D0002B84
:1010000003D000232370224C2370234B1C78012C27
:1010100011D1224C25886D1C258092B2132A2DD81F
:10102000ADB2142D2AD91D4A002313801A4A137019
:101030008205D44B1A6043050A681A40530D184CB8
:1010400025782370002D03D0002A01D1154A1060A5
:10105000820308681040810B134A13781170002B2B
:101060000AD0002808D10F4800240460204600F070
:1010700075FE204600F086FE01B0F0BD152ADAD3D9
:10108000002222801A70D6E780330A40A200202076
:10109000A9002020A4002020A8002020A6002020B5
:1010A000A0002020AA002020A1002020B0B50446E6
:1010B000603040252946FFF762F920462946FFF7B0
:1010C0005EF9A82000212150B0BD0000F0B589B024
:1010D000039107900120C103069101040591810449
:1010E00004910026324FA74C3449354AF30706D104
:1010F000069B2360B30706D5059B236105E0069B8D
:101100002361B307F8D4059B23607307089603D4C3
:10111000049B284C236002E0049B264C236100239F
:101120001C463D6805433D6005027E682E437E6097
:101130000E68002EFCD17E68AE437E603D6885431C
:101140003D601568ADB2EB18651C072C2C46E8D342
:101150000724089EA41B6400DB08079D2B53761C04
:10116000082E884CC2D1079C264640362746503769
:101170002346A833204631463A4600F001FD20467A
:1011800031463A46039BFFF75DFEA02020582146DA
:10119000A0314968009001912146603122463032E9
:1011A00023461033204600F00FFE09B0F0BDC046C4
:1011B0000031004090120A4090320A404033004013
:1011C00080825540B0B5B02000F056F9102000F0F4
:1011D00053F90025284600F04FF90024204600F07E
:1011E0001FFA681C45B2002DF7D5B12000F044F974
:1011F000102000F041F9204600F03EF90025284675
:1012000000F00EFA601C44B2002CF7D5B22000F0BA
:1012100033F9102000F030F9284600F02DF90024B1
:10122000204600F0FDF9681C45B2002DF7D5B3202B
:1012300000F022F9102000F01FF9204600F01CF900
:101240000025284600F0ECF9601C44B2002CF7D5CC
:10125000B42000F011F9102000F00EF9284600F03B
:101260000BF90024204600F0DBF9681C45B2002D84
:10127000F7D5B52000F000F9102000F0FDF8204669
:1012800000F0FAF80025284600F0CAF9601C44B2C4
:10129000002CF7D5B62000F0EFF8102000F0ECF8A5
:1012A000284600F0E9F80024204600F0B9F9681C4F
:1012B00045B2002DF7D5B72000F0DEF8102000F081
:1012C000DBF8204600F0D8F8002000F0A9F9601CF7
:1012D00044B2002CF8D5B0BD80B564222948012164
:1012E0004B020360521EFAD164220B020360521EAD
:1012F000FBD1AE2000F0C0F8D52000F0BDF8802072
:1013000000F0BAF8A82000F0B7F83F2000F0B4F8D9
:10131000D32000F0B1F8002000F0AEF8402000F03B
:10132000ABF8A12000F0A8F8C82000F0A5F8DA205A
:1013300000F0A2F8122000F09FF8812000F09CF845
:10134000CF2000F099F8D92000F096F8F12000F0B5
:1013500093F8DB2000F090F8302000F08DF8A42006
:1013600000F08AF8A62000F087F88D2000F084F8BD
:10137000142000F081F8AF2000F07EF8FFF722FF84
:1013800080BDC04690320A40F0B583B016460C4688
:10139000400002907E30B02101910843C0B200F0BD
:1013A0006BF8E700083FF8B204091034204600F05B
:1013B00063F808253D40284600F05EF830012149D9
:1013C0004618214FF05D00F02BF9F619707800F007
:1013D00027F9B07800F024F9F07800F021F930799D
:1013E00000F01EF9707900F01BF9B07900F018F9DF
:1013F000F07900F015F90298401E01990843C0B237
:1014000000F03AF8204600F037F8284600F034F8AB
:10141000307A00F005F9707A00F002F9B07A00F045
:10142000FFF8F07A00F0FCF8307B00F0F9F8707B00
:1014300000F0F6F8B07B00F0F3F8F07B00F0F0F885
:1014400003B0F0BD6C22000000FEFFFFF0B581B0DC
:101450000646107800280DD014460D46002779194D
:10146000C9B2C2B23046FFF78FFF7F1CF8B2205CD2
:101470000028F4D101B0F0BDF0B581B0009001209A
:1014800001026424E74B1A46103A1160641EFAD137
:10149000440264201460401EFCD164201960401E88
:1014A000FCD164201C60401EFCD100268020054633
:1014B000F54078272F40642502E011606D1E04D0AE
:1014C000002FFAD119606D1EFAD1642514606D1ECB
:1014D000FCD164251C606D1EFCD1761C082EE5D164
:1014E000642514606D1EFCD164251C606D1EFCD14A
:1014F000642519606D1EFCD1642514606D1EFCD13D
:1015000064251C606D1EFCD1642519606D1EFCD124
:10151000642514606D1EFCD164251C606D1EFCD119
:10152000642519606D1EFCD1642514606D1EFCD10C
:1015300064251C606D1EFCD1642519606D1EFCD1F4
:10154000642514606D1EFCD164251C606D1EFCD1E9
:10155000642519606D1EFCD1642514606D1EFCD1DC
:1015600064251C606D1EFCD1642519606D1EFCD1C4
:10157000642514606D1EFCD164251C606D1EFCD1B9
:10158000642519606D1EFCD1642514606D1EFCD1AC
:1015900064251C606D1EFCD1642519606D1EFCD194
:1015A000642514606D1EFCD164251C606D1EFCD189
:1015B000642514606D1EFCD164251C606D1EFCD179
:1015C00000260746F740009D2F40642502E0116089
:1015D0006D1E04D0002FFAD119606D1EFAD164255A
:1015E00014606D1EFCD164251C606D1EFCD1761C40
:1015F000082EE6D164201460401EFCD164201C60DB
:10160000401EFCD164201960401EFCD1642014608F
:10161000401EFCD164201160401EFCD101B0F0BD21
:10162000F0B5012319026424414A1160641EFCD103
:101630005B0264241360641EFCD164241161641E87
:10164000FCD164241361641EFCD10025802427464C
:10165000EF4078263E40642702E011607F1E04D0F0
:10166000002EFAD111617F1EFAD164261360761E16
:10167000FCD164261361761EFCD16D1C082DE5D1CA
:10168000642513606D1EFCD1642513616D1EFCD1B1
:1016900000252746EF4040263E40642702E01160C7
:1016A0007F1E04D0002EFAD111617F1EFAD164266C
:1016B0001360761EFCD164261361761EFCD16D1C6E
:1016C000082DE6D1642513606D1EFCD164251361DD
:1016D0006D1EFCD100252646EE400640642702E040
:1016E00011607F1E04D0002EFAD111617F1EFAD145
:1016F00064261360761EFCD164261361761EFCD12D
:101700006D1C082DE7D164201360401EFCD16420BD
:101710001361401EFCD164201161401EFCD1642085
:101720001360401EFCD164201160401EFCD1F0BD4E
:1017300090320A4010B50124A0070749FFF708F9C5
:10174000064800210160200405490A6802430A6036
:1017500008682043086010BD5C280000801100402C
:101760000011004070B52849002048628862274A6D
:101770008420506001200403254B1C608524946064
:1017800044031C60234CA51C0D604D6045060E688B
:101790002E430E604E682E434E60812555644D6683
:1017A0000D66D46314648C671561D5604D63556113
:1017B000D462146394615465CD671560D561194690
:1017C0003039154A0A601A6014490A680423134321
:1017D0000B604104124A136A0B43136213680B43F4
:1017E00013601049104A0A600A6310490A681023FE
:1017F00013430B6080040E490A6A02430A620A68B6
:1018000002430A6070BDC04604804240848042406A
:10181000D0120A4081000C0080C00500A0130A40CD
:1018200028100A40A0320A4000834100A0330A4039
:1018300028300A4080B50B480B49FFF789F80B4860
:1018400041680B4A0A4001214B04D2184260826869
:10185000084B13408360084A0423136002680A435C
:10186000026080BD0020004064280000003100407C
:10187000FEFFECFFF8FFE0E08031004010B5084CBF
:1018800008492046FFF758FA07492046FFF7BAF9FA
:10189000064801680122114301600548026010BD3D
:1018A00000A086406C2800007028000028B0864008
:1018B00008B1864080B508480849FFF76EF8032054
:1018C000400207490A6802430A60012000020A68D0
:1018D00002430A6080BDC04600000F40842800001B
:1018E00000120F4070B582B01B4C1C492046FFF718
:1018F00023FA1B492046FFF701F91A4801681A4AE2
:101900000A40026000250095204629462A462B46BB
:10191000FFF7FEF9204629462A46FFF7EBF9204655
:1019200029462A46FFF700FA012600962046294656
:101930002A462B46FFF7ECF9204629463246FFF7A8
:10194000D9F9312120463246FFF7EEF90748866083
:101950000321016002B070BD0040084086280000ED
:101960008C280000045808407F00FFFF0051084009
:1019700010B5084C08492046FFF7DEF90749204614
:10198000FFF740F90648016801221143016005484C
:10199000026010BD00000940942800009828000053
:1019A000281009400811094070B519480025056044
:1019B0000F200002174E316881430124600208188D
:1019C00030600320C143321F13680B4013607168FD
:1019D000A1437160210272688A43726000030A2188
:1019E0002246FFF74FF80C48FEF7EAFF3068102157
:1019F00001432020814331602846FFF76BF8FF2028
:101A0000000206490A688243A0031018086070BDEE
:101A100008030B4004010B40AC28000000E400E088
:101A200010B5084C08492046FFF786F907492046BB
:101A3000FFF7E8F8064801680122114301600548F4
:101A4000026010BD00808640D4280000D828000025
:101A5000289086400891864080B500F01DF8FFF779
:101A600081FEFFF7A1FFFFF73DFFFFF7D9FFFFF76B
:101A700005FFFFF77DFFFFF71DFFFFF75BFEFFF799
:101A8000D9FE9C20024900220A5402490A5480BD12
:101A9000AC0020204C012020F0B581B01248134A40
:101AA00042601348426013484260134C6260134D19
:101AB0006A60134E7260134F7A6013494A6013488C
:101AC0004260134A084B1A60094B1A60094B1A60AE
:101AD00022602A6032603A600A6002601020FEF7DD
:101AE00057FF01B0F0BDC04600080A40030000B136
:101AF00000280A40004808400088864000A8864028
:101B00000008094000080F4000080040002800407D
:101B100001000026014800687047C04620908640BA
:101B200080B5FFF747FA0120800513490A78034979
:101B3000002A01D0086180BD086080BD90320A4053
:101B400010B5804C80492046FFF7C0FA2046FFF7C9
:101B50002DFA0849087008480078002808D007487E
:101B600001694069974A51609549486000F044FA1C
:101B700010BDC04670002020AA0020208800202030
:101B8000B0B504880D88AC4203D91D7801242C43DC
:101B900005E01588AC4203D21C780125AC431C70CB
:101BA00044884D88AC4203D91D7802242C4305E0BB
:101BB0005588AC4203D21C780225AC431C70848843
:101BC0008D88AC4203D91D7804242C4305E0958808
:101BD000AC4203D21C780425AC431C70C488CD8869
:101BE000AC4203D91D7808242C4305E0D588AC42CB
:101BF00003D21C780825AC431C7004890D89AC42C3
:101C000003D91D7810242C4305E01589AC4203D27A
:101C10001C781025AC431C7044894D89AC4203D913
:101C20001D7820242C4305E05589AC4203D21C7852
:101C30002025AC431C7084898D89AC4203D91D7862
:101C400040242C4305E09589AC4203D21C78402502
:101C5000AC431C70C089C989884204D97F20C14324
:101C60001878084305E0D189884203D219787F208B
:101C700008401870B0BD00000348022101600160F7
:101C8000024801600160704780E200E000E100E08E
:101C900082B000F047FA2B48FFF708FAFFF7DCFEA6
:101CA000FFF7EAFF3A2700974B20840045480125BB
:101CB000002629462246334600F02CFA0097404879
:101CC00029462246334600F025FAFFF705FB1F4E52
:101CD0001F4F1C4D28461C49FFF7F8F9284631468E
:101CE000FFF70AF93288738838461A4C2146FEF706
:101CF00067FA0125284629463A46FFF7A7FBF388ED
:101D0000B28838462146FEF75BFA022029463A4659
:101D1000FFF79CFB7389328938460F4C2146FEF74A
:101D20004FFA032029463A46FFF790FBF389B28920
:101D300038462146FEF744FA042029463A46FFF782
:101D400085FBC6E7B802202072002020600020201A
:101D500054022020EC280000F628000080B501463F
:101D600001208303C003114A002902D413601061CB
:101D700002E01361106049420D480022FEF7D4FFD3
:101D800080BDC04680B5014601200004074A80237B
:101D9000002902D41360106102E01361106049420F
:101DA00003480122FEF7C0FF80BDC04690120A40E2
:101DB00000400840D44A1160D24908607047C046CC
:101DC00020022020EC012020F0B585B003931446BA
:101DD0000D4606460A980B9F00903946FEF7D4FA46
:101DE00004900294208831888142019501D2002517
:101DF0000AE0081AFEF71FFB02460B4603CDFEF76A
:101E000025FBFEF7C1FA05462846FEF71CFB009CA1
:101E100022463B4600F0ECF90028049800D1284601
:101E200003990880029840887188814201D2002578
:101E30000CE0081AFEF7FFFA02460B460199886883
:101E4000C968FEF703FBFEF79FFA05462846FEF732
:101E5000FAFA22463B4600F0CBF90028049800D15C
:101E600028460399488002988088B188814201D22F
:101E700000250CE0081AFEF7DEFA02460B4601992F
:101E800008694969FEF7E2FAFEF77EFA0546284638
:101E9000FEF7D9FA22463B4600F0AAF9002804983A
:101EA00000D12846039988800298C088F188814231
:101EB00001D200250CE0081AFEF7BDFA02460B46D7
:101EC00001998869C969FEF7C1FAFEF75DFA05460E
:101ED0002846FEF7B8FA22463B4600F089F900286A
:101EE000049800D128460399C88002980089318956
:101EF000814201D200250CE0081AFEF79CFA024646
:101F00000B460199086A496AFEF7A0FAFEF73CFA07
:101F100005462846FEF797FA22463B4600F068F948
:101F20000028049800D12846039908810298408926
:101F30007189814201D200250CE0081AFEF77BFA74
:101F400002460B460199886AC96AFEF77FFAFEF7D6
:101F50001BFA05462846FEF776FA22463B4600F075
:101F600047F90028049800D128460399488102982F
:101F70008089B189814201D200250CE0081AFEF760
:101F80005AFA02460B460199086B496BFEF75EFA56
:101F9000FEF7FAF905462846FEF755FA22463B4673
:101FA00000F026F90028049800D12846039988817A
:101FB0000298C089F189814201D200240CE0081AFC
:101FC000FEF739FA02460B460199886BC96BFEF79A
:101FD0003DFAFEF7D9F904462046FEF734FA009A96
:101FE0003B4600F005F9002800D1049403980499B9
:101FF000C18105B0F0BD0000F0B581B000F0A4F8DB
:10200000404F05CF801A3860BA6A083F002A16D0C0
:10201000012A25D13E460C367CCE4543BD62394669
:10202000871A67430F625400041BE31873434B6223
:10203000EC190F46E318CC6A1B19CB6211E07B69DF
:10204000BA69FC6943433B624243BD6AAD18BD6255
:10205000FA68861A66437E62EB189B19FB6200E001
:10206000FA68F8603A61284C05CC801A2060A26AB0
:10207000083C002A14D0012A23D127460C37ECCF84
:102080004643A662811A694321625500451BEB183D
:102090007B431C4F63627118C918E36AC9180EE0CC
:1020A000234614330ECB414321624243A56AAD1847
:1020B000A562E268861A5E43666269188919E16260
:1020C00000E0E268E0602261104BF86A104A984232
:1020D00001DD5D1C03E0511C8842154601DAFD62FA
:1020E0002846E16A994201DD5A1C02E0531C9942DC
:1020F00000DAE262FFF732FEE06AFFF743FE01B06A
:10210000F0BDC046EC012020200220207F380100D5
:1021100080C7FEFF10B5029C42618361C461016308
:1021200010BD000001204104054A1160054B1960F3
:102130000421116019600005106018607047C046E6
:1021400080E200E000E100E070B526480189C28825
:10215000531A05245C4343898588EB1A06255D43A1
:102160002B19848945882C1BE4001B19C489058818
:10217000281B0A26464398190123002D04D1012C5F
:1021800002D100251C4605E0012D07D1002C05D108
:1021900000241D46144B1D70144B1C70002805D0E4
:1021A0002D21091A2D30FFF705FE70BD114309D00E
:1021B0000E48007801280AD12C20C0432D21FFF7BA
:1021C000F9FD70BD2D200146FFF7F4FD70BD0648F6
:1021D0000078012804D12C20C1432D20FFF7EAFD0F
:1021E00070BDC046720020206C03202068032020B0
:1021F00010B500F009F8EFF300804000800F0128CF
:1022000000D0002010BD000070B501252D050C0088
:102210001C4310D4EC4206D4AC420AD4994200D0FC
:1022200070BD904270BDE94217D4EB4215D499427B
:1022300070BD894270BDEC4206D5AC42F9D58B42E7
:1022400000D070BD824270BD6D004C00EC4204D2E3
:102250005C00EC4201D28B4270BD034C30B4FEF7FF
:10226000A3FA30BC70BD00BF1900130400000000C9
:10227000000000000000000000000000000000F866
:1022800000000000000000333000000000100C06C9
:10229000100C0600000000000000000040C0784064
:1022A000C0784000043F04043F040400007088FC30
:1022B00008300000001820FF211E0000F008F00088
:1022C000E018000000211C031E211E0000F00888F9
:1022D000700000001E2123241927211010160E0063
:1022E000000000000000000000000000000000E00E
:1022F0001804020000000007182040000002041823
:10230000E00000000040201807000000404080F07E
:10231000804040000202010F01020200000000F0B4
:10232000000000000101011F010101000000000088
:102330000000000080B070000000000000000000FD
:102340000000000000010101010101010000000086
:10235000000000000030300000000000000000001D
:1023600080601804006018060100000000E01008FA
:102370000810E000000F102020100F00001010F8CF
:10238000000000000020203F20200000007008080E
:10239000088870000030282422213000003008888E
:1023A000884830000018202020110E000000C020B6
:1023B00010F8000000070424243F240000F80888D7
:1023C000880808000019212020110E0000E0108864
:1023D00088180000000F112020110E000038080896
:1023E000C83808000000003F0000000000708808A6
:1023F00008887000001C222121221C0000E0100827
:102400000810E0000000312222110F00000000C07F
:10241000C00000000000003030000000000000801C
:10242000000000000000806000000000000080400C
:102430002010080000010204081020004040404025
:102440004040400004040404040404000008102078
:1024500040800000002010080402010000704808BD
:102460000808F0000000003036010000C030C82825
:10247000E810E0000718272423140B000000C038E0
:10248000E0000000203C23020227382008F888885A
:1024900088700000203F202020110E00C030080866
:1024A00008083800071820202010080008F808083D
:1024B0000810E000203F202020100F0008F8888836
:1024C000E8081000203F20202320180008F8888802
:1024D000E8081000203F200003000000C03008087A
:1024E0000838000007182020221E020008F8080003
:1024F0000008F808203F210101213F20000808F8CA
:10250000080800000020203F2020000000000808EC
:10251000F8080800C08080807F00000008F888C0AC
:1025200028180800203F20012638200008F808005D
:1025300000000000203F20202020300008F8F80094
:10254000F8F80800203F003F003F200008F830C0A6
:102550000008F808203F200007183F00E010080896
:102560000810E0000F10202020100F0008F80808C5
:102570000808F000203F210101010000E0100808D8
:102580000810E0000F18242438504F0008F88888FD
:1025900088887000203F2000030C302000708808DD
:1025A000080838000038202121221C00180808F8EB
:1025B000080818000000203F2000000008F808006C
:1025C0000008F808001F202020201F00087888003D
:1025D00000C83808000007380E010000F80800F8AD
:1025E0000008F800033C0700073C03000818688057
:1025F0008068180820302C03032C30200838C800CD
:10260000C83808000000203F20000000100808081B
:10261000C83808002038262120201800000000FEBD
:10262000020202000000007F40404000000C30C069
:1026300000000000000000010638C0000002020295
:10264000FE000000004040407F0000000000040247
:102650000202040000000000000000000000000072
:102660000000000080808080808080800002020462
:10267000000000000000000000000000000080805A
:10268000808000000019242222223F2008F80080C8
:1026900080000000003F112020110E00000000808B
:1026A00080800000000E112020201100000000801A
:1026B0008088F800000E112020103F20000080804C
:1026C00080800000001F222222221300008080F060
:1026D000888888180020203F20200000000080808B
:1026E00080808000006B94949493600008F80080D0
:1026F00080800000203F210000203F20008098982B
:10270000000000000020203F20200000000000808A
:102710009898000000C08080807F000008F80000CA
:1027200080808000203F24022D302000000808F81F
:10273000000000000020203F2020000080808080DA
:1027400080808000203F20003F20003F808000806C
:1027500080800000203F210000203F20000080807A
:1027600080800000001F202020201F00808000802B
:102770008000000080FFA12020110E0000000080DA
:1027800080808000000E112020A0FF8080808000CB
:102790008080800020203F212000010000008080F8
:1027A000808080000033242424241900008080E0ED
:1027B000808000000000001F2020000080800000BA
:1027C00000808000001F202020103F20808080009B
:1027D0000080808000010E300806010080800080AB
:1027E000008080800F300C030C300F0000808000D0
:1027F000808080000020312E0E31200080808000FB
:102800000080808080818E701806010000808080AA
:10281000808080000021302C222130000000000048
:10282000807C020200000000003F404000000000E9
:10283000FF00000000000000FF0000000002027C1A
:10284000800000000040403F000000000006010141
:102850000202040400000000000000000105000066
:102860000000000301050000000000030807090044
:10287000020000001F4E00000100000000000000E8
:10288000000000000800080000000000E80300004D
:102890002000010008077F00020000000C03000078
:1028A0000100000000000000000000000100000026
:1028B0000000000000000000000000000000000018
:1028C00010000000000100000300000000000000F4
:1028D0003400C44108070300020000004FC3000099
:1028E00001000000000000000000000025642D250C
:1028F00064202020200025642D2564202020000055
:1029000010290000000020207004000008010000D1
:04000005000000C136
:00000001FF
