:020000040800F2
:100000009008002029020008651C0008B1180008AB
:10001000611C00080F050008A9230008000000006B
:10002000000000000000000000000000D31D0008D8
:100030001305000800000000D11D0008D51D0008B0
:10004000430200084302000843020008430200087C
:10005000430200084302000843020008430200086C
:10006000430200084302000843020008430200085C
:10007000430200084302000843020008430200084C
:10008000430200084302000843020008430200083C
:10009000430200084302000843020008430200082C
:1000A000430200084302000843020008430200081C
:1000B000430200084302000843020008430200080C
:1000C00043020008430200084302000843020008FC
:1000D0004302000899230008430200084302000875
:1000E00043020008430200084302000843020008DC
:1000F00043020008430200084302000843020008CC
:1001000043020008430200084302000843020008BB
:1001100043020008430200084302000843020008AB
:10012000430200084302000843020008430200089B
:10013000430200084302000843020008430200088B
:10014000430200084302000843020008430200087B
:10015000430200084302000843020008430200086B
:10016000430200084302000843020008430200085B
:100170004302000843020008430200080000000098
:10018000430200084302000800F002F800F03CF8C7
:100190000AA090E8000C82448344AAF10107DA45E2
:1001A00001D100F031F8AFF2090EBAE80F0013F0F8
:1001B000010F18BFFB1A43F001031847B02D0000D0
:1001C000D02D0000103A24BF78C878C1FAD8520761
:1001D00024BF30C830C144BF04680C6070470000C1
:1001E0000023002400250026103A28BF78C1FBD840
:1001F000520728BF30C148BF0B6070471FB502F0DF
:10020000A4FE1FBD10B510BD00F047F91146FFF761
:10021000F5FF02F009F900F065F903B4FFF7F2FF0A
:1002200003BC00F06DF90000094880470948004709
:10023000FEE7FEE7FEE7FEE7FEE7FEE7FEE7FEE796
:10024000FEE7FEE704480549054A064B70470000F3
:10025000911E0008890100089002002090080020EB
:10026000900400209004002053EA020C00F0698002
:100270002DE9F04B4FF00006002B1FBFB3FA83F5BA
:1002800003FA05F424FA05F65E4012BF1643B2FAEB
:1002900082F502FA05F4C5F120051EBF22FA05FC1D
:1002A00044EA0C04203556EA044C4FEA144418BFC3
:1002B000641C4FF000084FF00009904271EB030CF2
:1002C00039D3002919BFB1FA81F701FA07F6B0FA5C
:1002D00080F700FA07F6C7F120071EBF20FA07FCD7
:1002E00046EA0C062037B6FBF4FCA7EB0507103FE7
:1002F00007F01F0BCBF120060CFA0BFB2CFA06F6CD
:1003000044BFB3460026202FA4BF5E464FF0000B2B
:100310005BEA060C08BF4FF0010B19EB0B09ABFBB6
:10032000027C48EB0608C01B06FB02CC0BFB03CC8F
:1003300071EB0C01C1E70B46024641464846BDE859
:10034000F08B13B54FF000004FF00001AFF30080C9
:10035000BDE81C40704700000FB41CB5074B06AA4F
:100360007B4469460090059800F06BF800206946D0
:1003700000F07AF81CBC5DF814FB000005010000D9
:1003800010B5203AC0F00B80B1E81850203AA0E830
:100390001850B1E81850A0E81850BFF4F5AF5FEA64
:1003A000027C24BFB1E81850A0E8185044BF18C917
:1003B00018C0BDE810405FEA827C24BF51F8043BBE
:1003C00040F8043B08BF7047D20728BF31F8023B12
:1003D00048BF11F8012B28BF20F8023B48BF00F8A6
:1003E000012B70474FF0000200B513469446964625
:1003F000203922BFA0E80C50A0E80C50B1F1200138
:10040000BFF4F7AF090728BFA0E80C5048BF0CC0E5
:100410005DF804EB890028BF40F8042B08BF704743
:1004200048BF20F8022B11F0804F18BF00F8012BB5
:10043000704770477047704701694A1C026108782D
:10044000704700B58FB0CDE9013100210591054914
:100450007944CDE903101146684600F00AF80FB060
:1004600000BD0000E5FFFFFF0A6802F8010B0A600B
:1004700070472DE9F04106460024D6E90170F56881
:100480008046304603E04146B847641C3046A847E2
:100490000028F8D12046BDE8F081754600F02CF820
:1004A000AE4605006946534620F00700854618B061
:1004B00020B5FFF7C7FEBDE820404FF000064FF023
:1004C00000074FF000084FF0000B21F00701AC4689
:1004D000ACE8C009ACE8C009ACE8C009ACE8C009A8
:1004E0008D46704710B50446AFF300802046BDE846
:1004F0001040FFF792BE0000004870472C02002019
:1005000001491820ABBEFEE726000200704700BF7D
:10051000FEE770472DE9FF4706460F461546984609
:10052000DDE90D9A0C9C0020009001900290039050
:100530008DF80060FD208DF801008DF80270281202
:100540008DF80300E8B28DF804008DF80580200EC8
:100550008DF80600200C8DF80700200A8DF80800A1
:10056000E0B28DF809008DF80A908DF80BA06B2091
:100570008DF80C0064230D2269460FA801F038F9AC
:10058000BDE8FF870FB47FB505460C4600200090FC
:100590000190029003908DF80050FE208DF801002C
:1005A00098208DF802008DF803406B208DF8040030
:1005B0006423052269460AA801F01AF97FBC5DF898
:1005C00014FB72B600BFFEE770B50446A56D00F0DF
:1005D0006DF9064694F83500022808D08020606541
:1005E00000BF002084F8340000BF012070BD2068E7
:1005F000006820F01600216808602068406920F03B
:10060000800021684861206C08B9A06C28B120687E
:10061000006820F00800216808602068006820F069
:1006200001002168086010E000F040F9801B0528F7
:100630000BD920206065032084F8350000BF00201E
:1006400084F8340000BF0320D0E72068006800F081
:1006500001000028E8D194F85C103F208840A86091
:10066000012084F8350000BF002084F8340000BF6A
:1006700000BFBBE7014691F83500022803D0802077
:10068000486501207047052081F83500086800683A
:1006900020F001000A6810600020F3E7F8B5024678
:1006A0000B460025002400200021D6E0012606FA92
:1006B00001F51E6806EA0504AC4274D11E7906F005
:1006C0000306012E04D01E7906F00306022E13D174
:1006D00090684F000326BE40B0434F00DE68BE4026
:1006E00030439060506801268E40B0431E79C6F3B7
:1006F00000168E40304350601E7906F00306032E2C
:1007000009D0D0684F000326BE40B0434F009E681A
:10071000BE403043D0601E7906F00306022E13D18E
:10072000CF0802F1200656F827004E07F70E0F26D5
:10073000BE40B0434F07FF0E1E69BE403043CF0896
:1007400002F1200646F8270010684F000326BE403D
:10075000B0431E7906F003064F00BE4030431060E0
:100760005E6806F44036002E76D000BF0026009664
:100770003C4E366846F480463A4F3E603E46366808
:1007800006F48046009600BF00BF374E8F0856F82B
:1007900027008E07370F0F26BE40B043334EB242BC
:1007A00002D1002624E057E0314EB24201D10126A9
:1007B0001EE0304EB24201D1022619E02E4EB24266
:1007C00001D1032614E02D4EB24201D104260FE0E0
:1007D0002B4EB24201D105260AE02A4EB24201D187
:1007E000062605E0284EB24201D1072600E0082681
:1007F0008F073F0FBE4030431B4E8F0846F827003F
:10080000224E3068A0435E6806F4801606B120438D
:100810001E4E3060361D3068A0435E6806F4001638
:1008200006B12043194E361D3060184E361F306811
:10083000A0435E6806F4003606B12043134E361F0F
:100840003060361F3068A0435E6806F4803606B11B
:1008500020430E4E083E3060491C1029FFF426AF9D
:10086000F8BD000044380240083801400000024052
:100870000004024000080240000C02400010024048
:100880000014024000180240001C0240083C0140D5
:10089000024613690B400BB1012000E000207047B5
:1008A0000AB1816101E00B0483617047014800686F
:1008B00070470000100000200348006803490978D1
:1008C000084401490860704710000020180000200B
:1008D00010B50D48006840F400700B4908600846E8
:1008E000006840F4806008600846006840F480704A
:1008F0000860032000F0A6F80F2000F007F800F0D1
:100900002BF8002010BD0000003C024070B50446EA
:100910000E4800784FF47A71B1FBF0F00C49096889
:10092000B1FBF0F5284600F02FFC08B1012070BDA6
:10093000102C07D200222146501E00F045F8054831
:10094000046001E00120F2E70020F0E71800002039
:100950001C0000201400002008B500BF00200090FB
:100960000E48006840F480400C4908600846006862
:1009700000F48040009000BF00BF00BF0020009046
:10098000081F006840F08050091F08600846006892
:1009900000F08050009000BF00BF08BD4438024006
:1009A0000146084600280DDB00BF00BF00F01F0312
:1009B00001229A4043099B0003F1E023C3F8002180
:1009C00000BF00BF00BF70472DE9F05F80460D46B5
:1009D0001646002701F0EAFC074639462A46334608
:1009E00001F00700C0F1070ABAF1040F02D94FF075
:1009F000040A01E0C0F1070AD14600F1040ABAF185
:100A0000070F02D24FF0000A01E0A0F1030AD4461A
:100A10004FF0010A0AFA09FAAAF1010A0AEA020ADF
:100A20000AFA0CFA4FF0010B0BFA0CFBABF1010BBD
:100A30000BEA030B4AEA0B042146404601F0BEFCD8
:100A4000BDE8F09F00BF00F00702064B19684FF6A3
:100A5000FF031940044B0B4343EA0221014B196089
:100A600000BF70470CED00E00000FA0570B50446C9
:100A70000D460CB9012070BD5848006800F0070011
:100A8000A84209D255490D700846006800F00700D9
:100A9000A84201D00120EEE7207800F002000228F1
:100AA0001DD1207800F00400042805D14C480068CE
:100AB00040F4E0504A490860207800F00800082817
:100AC00005D14748006840F4604045490860444803
:100AD000006820F0F000A1680843414908602078D0
:100AE00000F00100A8B36068012807D13C4808382D
:100AF0000068C0F34040B8B90120BCE76068022834
:100B000002D06068032807D1354808380068C0F370
:100B1000406048B90120AEE7314808380068C0F3AA
:100B2000400008B90120A6E72D48006820F0030026
:100B3000616808432A490860FFF7B8FE064609E0E5
:100B4000FFF7B4FE801B41F28831884202D90320AE
:100B500091E707E02248006800F00C006168B0EB04
:100B6000810FEDD11D48006800F00700A84209D9A7
:100B70001A490D700846006800F00700A84201D02D
:100B8000012078E7207800F00400042807D11448F9
:100B9000006820F4E050E1680843114908602078BB
:100BA00000F00800082808D10D48006820F46040D3
:100BB000216940EAC1000A49086000F03FF808498D
:100BC0000968C1F30311074A515CC840064908602F
:100BD00006480068FFF79AFE00204CE7003C024000
:100BE00008380240542F00081C0000201400002088
:100BF00001480068704700001C00002000B5FFF7A6
:100C0000F7FF04490968C1F38221034A515CC840D7
:100C100000BD000008380240642F000800B5FFF74F
:100C2000E7FF04490968C1F34231034A515CC840F7
:100C300000BD000008380240642F00082DE9F0478D
:100C4000002400250026A1462548006800F00C007D
:100C500020B1042805D008283AD105E0DFF88490B7
:100C600039E0DFF8849036E01D48001F006800F08E
:100C70003F041B48001F006800F4800078B11A4848
:100C80001749091F0968C1F38811A0FB01700146CB
:100C9000224600233846FFF7E7FA05460EE01148E2
:100CA0000F49091F0968C1F38811A0FB01700146B3
:100CB000224600233846FFF7D7FA05460848001FAA
:100CC0000068C0F30140401C4600B5FBF6F902E0A5
:100CD000DFF8109000BF00BF4846BDE8F087000075
:100CE000083802400024F40000127A00F8B50446E7
:100CF0000CB90120F8BD207800F00100002874D064
:100D0000F948006800F00C0004280DD0F64800688F
:100D100000F00C00082813D1F348001F006800F40D
:100D20008000B0F5800F0BD1EF4808380068C0F3A1
:100D30004040002859D06068002856D10120D9E7EA
:100D400000BF6068B0F5803F08D1E7480838006808
:100D500040F48030E449083908601EE06068B0F56E
:100D6000A02F0DD1E0480838006840F48020DE490B
:100D7000083908600846006840F4803008600CE0DC
:100D8000D9480838006820F48030D749083908600D
:100D90000846006820F48020086000BF606890B1B9
:100DA000FFF784FD054606E0FFF780FD401B642841
:100DB00001D903209EE7CC4808380068C0F34040C2
:100DC0000028F1D011E0FFF771FD054606E0FFF7BE
:100DD0006DFD401B642801D903208BE7C248083809
:100DE0000068C0F340400028F1D1207800F00200F4
:100DF00002285FD1BC48006800F00C0058B1BA4826
:100E0000006800F00C0008281CD1B748001F0068DB
:100E100000F48000B0B9B44808380068C0F340005E
:100E200020B1E068012801D0012063E7AE4808380E
:100E3000006820F0F800216940EAC100AA49083999
:100E4000086037E0E06800B30120A8490860FFF7B8
:100E50002DFD054606E0FFF729FD401B022801D9BC
:100E6000032047E7A04808380068C0F34000002886
:100E7000F1D09D480838006820F0F800216940EA68
:100E8000C10099490839086014E0002097490860BA
:100E9000FFF70CFD054606E0FFF708FD401B0228A2
:100EA00001D9032026E7904808380068C0F34000C5
:100EB0000028F1D1207800F0080008282CD16069C2
:100EC000A8B101208A490860FFF7F0FC054606E05A
:100ED000FFF7ECFC401B022801D903200AE78248F7
:100EE0006C300068C0F340000028F1D014E000200E
:100EF0007F490860FFF7DAFC054606E0FFF7D6FCFD
:100F0000401B022801D90320F4E677486C300068C2
:100F1000C0F340000028F1D1207800F0040004283C
:100F200070D1002770483830006800F0805090B9C8
:100F300000BF002000906C483830006840F08050BE
:100F40006949383108600846006800F08050009018
:100F500000BF00BF01276748006800F48070B0B987
:100F60006448006840F4807062490860FFF79EFCA6
:100F7000054606E0FFF79AFC401B022801D9032032
:100F8000B8E65C48006800F480700028F2D000BF2A
:100F9000A068012808D154486830006840F001007A
:100FA0005149683108601DE0A06805280DD14E4800
:100FB0006830006840F004004B496831086008461A
:100FC000006840F0010008600CE0474868300068A5
:100FD00020F001004449683108600846006820F0AC
:100FE0000400086000BFA068A8B1FFF75FFC0546D9
:100FF00009E0FFF75BFC401B41F28831884202D9CF
:10100000032077E626E0384868300068C0F34000E7
:101010000028EED013E0FFF749FC054608E0FFF793
:1010200045FC401B41F28831884201D9032061E62A
:101030002D4868300068C0F340000028EFD1012F30
:1010400007D129483830006820F0805026493831CF
:10105000086000BFA069002845D02348006800F060
:101060000C0008285DD0A069022845D100201F4946
:101070000866FFF71BFC054606E0FFF717FC401B60
:10108000022801D9032035E6174808380068C0F364
:1010900040600028F1D1D4E907010843616A40EAC1
:1010A00081110122A06AC2EB500041EA00412C20CC
:1010B000005D41EA00600C49091F086001200B49EE
:1010C0000866FFF7F3FB054606E0FFF7EFFB401B62
:1010D000022801D903200DE6034808380068C0F350
:1010E00040600028F1D049E0083802400000474243
:1010F000800E474200700040002021490866FFF73B
:10110000D5FB054606E0FFF7D1FB401B022801D9BD
:101110000320EFE51B480068C0F340600028F2D1CF
:101120002CE0A069012800D1E4E51648001D0668FE
:10113000A069012820D006F48001E06981421BD11A
:1011400006F03F01206A814216D147F6C070304058
:10115000616AB0EB811F0FD106F440310122A06A11
:10116000C2EB5000B1EB004F06D106F070612C20AD
:10117000005DB1EB006F01D00120BBE50020B9E5B7
:10118000000047420038024070B504462546681EFC
:10119000B0F1807F01D301200FE0681E4FF0E02105
:1011A00048610F214FF0FF3001F008F900204FF0A7
:1011B000E021886107200861002070BD70477047FA
:1011C0002DE9F84F0446206805682068C668206845
:1011D00047694FF00009CA4605F00F09B9F1000F41
:1011E0000AD105F0200038B106F0200020B12046D9
:1011F00000F0A7FEBDE8F88FB9F1000F7CD007F032
:10120000010018B906F49070002875D005F00100AF
:1012100030B106F4807018B1606C40F00100606479
:1012200005F0040030B107F0010018B1606C40F027
:101230000200606405F0020030B107F0010018B14F
:10124000606C40F00400606405F0080048B106F0EE
:10125000200010B907F0010018B1606C40F00800E0
:101260006064606C002846D005F0200028B106F0CC
:10127000200010B1204600F064FE20684069C0F3F1
:10128000801A606C00F0080010B9BAF1000F2DD080
:10129000204600F010FE2068406900F04000402821
:1012A00020D100BF00BF2168143151E8001F21F098
:1012B00040002168143141E80002002AF3D100BF48
:1012C000E06B50B17F48E16B0865E06BFFF7D2F946
:1012D00088B1E06B016D88470DE02046FFF76FFF96
:1012E00009E009E02046FFF76AFF04E02046FFF727
:1012F00066FF002060647DE7206B012878D105F04F
:101300001000002874D006F010000028FAD000BFAA
:1013100000200090206800680090206840680090DD
:1013200000BF00BF2068406900F04000402870D135
:10133000E06B006840681FFA80F8B8F1000F58D0E1
:10134000A08D404555DDA4F82E80E06BC069B0F556
:10135000807F43D000BF00BF21680C3151E8001FDF
:1013600021F4807021680C3141E80002002AF3D199
:1013700000BF00BF00BF2168143151E8001F21F0F9
:1013800001002168143141E80002002AF3D100BFB6
:1013900000BF00BF2168143151E8001F21F0400058
:1013A0002168143141E80002002AF3D100BF202057
:1013B00084F842000020206300BF00BF21680C3188
:1013C00051E8001F21F0100021680C3141E80002B3
:1013D000002AF3D100BFE06BFFF7F6F8022060634C
:1013E000A08DE28D801A81B22046FFF7E7FE0EE065
:1013F00052E0A08D40450AD1E06BC069B0F5807F16
:1014000005D102206063A18D2046FFF7D7FEF1E6EB
:10141000FFE7A08DE18D401A1FFA80F8E08DD0B370
:10142000B8F1000F37D000BF00BF21680C3151E880
:10143000001F21F4907021680C3141E80002002A5D
:10144000F3D100BF00BF00BF2168143151E8001F75
:1014500021F001002168143141E80002002AF3D193
:1014600000BF202084F842000020206300BF00BF9E
:1014700021680C3151E8001F21F0100021680C3167
:1014800041E80002002AF3D100BF02206063414618
:101490002046FFF793FEADE605F0800030B106F080
:1014A000800018B1204600F001FFA3E605F04000DF
:1014B00030B106F0400018B1204600F032FD99E648
:1014C00000BF97E6A51E000810B504460CB9012020
:1014D00010BDA06900B100E000BF94F8410028B938
:1014E000002084F84000204600F02AF8242084F8E8
:1014F00041002068C06820F400502168C860204680
:1015000000F09EFD2068006920F490402168086189
:101510002068406920F02A00216848612068C0687E
:1015200040F400502168C86000206064202084F8E6
:10153000410084F842000020606300BFC8E700005B
:1015400010B586B00446142101A8FEF74BFF65498B
:10155000206888424DD100BF00200090624800689A
:1015600040F48010604908600846006800F480106C
:10157000009000BF00BF00BF002000905A48103804
:10158000006840F0040058491039086008460068B7
:1015900000F00400009000BF00BF00BF00200090DA
:1015A0000846006840F0080008600846006800F03F
:1015B0000800009000BF00BF881401900220029034
:1015C00000200390032004900820059001A94748BB
:1015D000FFF764F80420019002200290002003909D
:1015E000032004900820059001A94148FFF756F810
:1015F00075E04049206888423BD100BF0020009040
:101600003948001D006840F010003749091D086086
:101610000846006800F01000009000BF00BF00BF47
:101620000020009030481038006840F001002E493A
:10163000103908600846006800F00100009000BF03
:1016400000BF4FF4C0600190022002900020039080
:10165000032004900720059001A92748FFF71EF8F2
:10166000002211462520FFF7AFF92520FFF798F952
:1016700035E022492068884231D100BF0020009027
:101680001948001D006840F020001749091D086036
:101690000846006800F02000009000BF00BF00BFB7
:1016A0000020009010481038006840F004000E49F7
:1016B000103908600846006800F00400009000BF80
:1016C00000BFC02001900220029000200390032060
:1016D00004900820059001A90448FEF7DFFF06B03A
:1016E00010BD000000500040403802400008024099
:1016F000000C0240001001400000024000140140B4
:1017000070B504460D46164694F8420020280BD1C9
:1017100005B10EB9012070BD002020633246294674
:10172000204600F0A3FDF6E70220F4E72DE9F041A2
:10173000054600262648854247D126480778264890
:10174000007868B925480078FE2809D12448007837
:10175000FF2805D101202049087000202149087088
:101760001D480078012824D11F481E490978475494
:101770001C480078401C1B4908700846007809285E
:1017800017D100201449087016490870002403E09E
:101790001548005D4640641C082CF9DB1248007AAD
:1017A000B04203D101201149086002E000200F4936
:1017B00008600A4800780A49087008480770012242
:1017C00004490348FFF79CFF00BFBDE8F08100001B
:1017D0009C010020080000200C0000200A000020CE
:1017E0000B0000200900002048010020000000201C
:1017F0002DE9F84F04460E46174699464FF0000A69
:1018000094F84100202850D106B117B90120BDE855
:10181000F88F00206064212084F84100FFF746F82B
:101820008246A784E784A068B0F5805F04D1206970
:1018300010B90025B04602E035464FF000081EE022
:101840005346002280212046CDF8009000F05EFD36
:1018500020B1202084F841000320D8E745B9B8F82A
:101860000000C0F308002168486008F1020803E0A6
:101870002878216848606D1CE08C401EE084E08C74
:101880000028DDD15346002240212046CDF80090AB
:1018900000F03CFD20B1202084F841000320B6E791
:1018A000202084F841000020B1E70220AFE7704714
:1018B00000BFFEE700B5ABB0202123A8FEF792FDE4
:1018C000544800785449087010215448FEF7E0FF4E
:1018D0005049087050480078012816D10846007811
:1018E00098B9002240214D48FEF7DAFF012220215D
:1018F0004A48FEF7D5FF4AA123A8FEF72DFD642331
:10190000022223A94748FFF773FF47480078474959
:10191000087008214148FEF7BBFF4349087043485F
:101920000078012816D10846007898B900222021B5
:101930003A48FEF7B5FF012240213848FEF7B0FFD4
:101940003BA123A8FEF708FD6423022223A9354802
:10195000FFF74EFF374800783749087004212F48B9
:10196000FEF796FF334908703348007801284ED1BE
:101970000846007800284AD1012240212748FEF776
:101980008FFF012220212548FEF78AFF2BA123A8E3
:10199000FEF7E2FC6423022223A92248FFF728FF76
:1019A0002622274911A8FEF7EBFC2548C08CADF88C
:1019B0006A002348816A1B91808DADF87000204831
:1019C000C08DADF872001E48006B1D901C48406B26
:1019D0001E9009221A4938311FA8FEF7D1FC184879
:1019E00090F841008DF88500154890F842008DF878
:1019F00086001348406C2290402213A96846FEF7E7
:101A0000BFFC00210846DDE91123FEF7BBFD2BB02A
:101A100000BD000020000020210000200010024036
:101A2000303200009C010020220000202300002012
:101A30003033000024000020250000203034000056
:101A40005401002000B587B0142102A8FEF7CAFC9B
:101A500000BF002001905048006840F010004E493F
:101A600008600846006800F01000019000BF00BF49
:101A700000BF002001900846006840F004000860A4
:101A80000846006800F00400019000BF00BF00BFDE
:101A9000002001900846006840F080000860084679
:101AA000006800F08000019000BF00BF00BF002070
:101AB00001900846006840F0010008600846006890
:101AC00000F00100019000BF00BF00BF00200190A6
:101AD0000846006840F0020008600846006800F010
:101AE0000200019000BF00BF00BF00200190084627
:101AF000006840F0080008600846006800F0080030
:101B0000019000BF00BF002260212448FEF7C8FEFC
:101B100000224FF400512248FEF7C2FE00220221AB
:101B20002048FEF7BDFE1C200290002003900120FB
:101B3000049002A91948FEF7B1FD6020029001202F
:101B4000039000200490059002A91448FEF7A6FD1A
:101B50004FF4005002900120039000200490059063
:101B600002A90F48FEF79AFD012002900020039081
:101B70000220049002A90C48FEF790FD022002907A
:101B80000120039000200490059002A90548FEF76B
:101B900085FD07B000BD0000303802400010024053
:101BA00000080240000402400000024010B50B484B
:101BB0000B4908604FF4E13048600021084881601B
:101BC000C16001610C21416100218161C161FFF7A8
:101BD0007BFC08B1FEF7F5FC10BD00000050004092
:101BE0005401002010B50D480D4908604FF4E13054
:101BF000486000210A488160C16001610C21416197
:101C000000218161C161FFF75FFC08B1FEF7D9FCDB
:101C1000012204490248FFF773FD10BD0010014086
:101C20009C0100200800002010B50B480B490860FB
:101C30004FF4E1304860002108488160C1600161D3
:101C40000C21416100218161C161FFF73DFC08B1B8
:101C5000FEF7B7FC10BD000000140140E4010020B5
:101C600000BFFEE700BFFEE710B52DED0E8B04466A
:101C7000B0EE408AF0EE608A94ED001BB0EE410AAF
:101C8000F0EE610A53EC182B51EC100B00F0CEFE75
:101C900041EC1A0B94ED0A1BB0EE410AF0EE610A1A
:101CA00053EC182B51EC100B00F064FDC4E90A0151
:101CB00094ED0A2BB0EE420AF0EE620A94ED022B8C
:101CC000B0EE421AF0EE621A53EC102B51EC110BED
:101CD00000F0ACFE41EC1B0B94ED0C1BB0EE410A86
:101CE000F0EE610A53EC102B51EC180B00F0D2FF10
:101CF00041EC1C0B94ED041BB0EE410AF0EE610ABE
:101D000053EC1C2B51EC100B00F090FE41EC1D0B22
:101D100084ED0C8B53EC1B2B51EC1A0B00F02AFDBD
:101D200041EC1E0B53EC1D2B00F024FD41EC190B74
:101D300094ED081BB0EE410AF0EE610A53EC102B53
:101D400051EC190B00F070FF06D294ED080BB0EEC9
:101D5000409AF0EE609A12E094ED061BB0EE410A54
:101D6000F0EE610A53EC102B51EC190B00F022FE3F
:101D700005D294ED060BB0EE409AF0EE609AB0EE0C
:101D8000490AF0EE690ABDEC0E8B10BD00B50146A4
:101D9000B0EE405AF0EE605A81ED005B81ED021B1F
:101DA00081ED042B81ED063B81ED084B084600F0E8
:101DB00001F800BD9FED040B80ED0A0B9FED020BB7
:101DC00080ED0C0B704700000000000000000000D8
:101DD0007047704710B5FEF76FFD10BD00B593B0AA
:101DE000302107A8FEF7FEFA142102A8FEF7FAFA3E
:101DF00000BF002001902448006840F08050224934
:101E000008600846006800F08050019000BF00BFE5
:101E100000BF002001901D48006840F480401B492D
:101E200008600846006800F48040019000BF00BFD1
:101E3000012007900004089002200D9041050E91AA
:101E400004210F91A82110910221119104211291D6
:101E500007A8FEF74BFF08B1FEF7B3FB0F20029077
:101E600002200390002004904FF4A05005904FF4FE
:101E700080500690052102A8FEF7F8FD08B1FEF794
:101E8000A0FB13B000BD00004038024000700040CD
:101E90000348006840F47000014908607047000082
:101EA00088ED00E070B50446A56B0020E885284663
:101EB000FFF785F970BD00BF00BF02680C3252E821
:101EC000002F22F4907102680C3242E80013002BBC
:101ED000F3D100BF00BF00BF0268143252E8002FE8
:101EE00022F001010268143242E80013002BF3D102
:101EF00000BF016B01290ED100BF00BF02680C3288
:101F000052E8002F22F0100102680C3242E8001360
:101F1000002BF3D100BF202180F842100021016383
:101F2000704710B504462068C06820F04000216862
:101F3000C860202084F841002046FFF7B8FC00204C
:101F400010BDF8B504460025002694F8420022286A
:101F500073D1A068B0F5805F0BD1206948B9A66A3B
:101F600020684068C0F308003080A06A801CA0622E
:101F700014E0A56AA068B0F5805F03D0A06828B916
:101F8000206918B920684068287004E0206840681B
:101F900000F07F002870A06A401CA062E08D401E07
:101FA00080B2E085002846D12068C06820F020007B
:101FB0002168C8602068C06820F480702168C8600B
:101FC0002068406920F0010021684861202084F8E1
:101FD000420000206063206B012826D1002020638E
:101FE00000BF00BF21680C3151E8001F21F0100034
:101FF00021680C3141E80002002AF3D100BF2068BB
:10200000006800F0100010280AD100BF00200090E6
:1020100020680068009020684068009000BF00BF02
:10202000A18D2046FFF7CAF802E02046FFF77EFBAD
:102030000020F8BD01E00020FBE70220F9E70000E6
:102040002DE9F84F04462068006920F44050E1680B
:102050000843216808612169A06808436169084351
:10206000E169084300902068C06849F20C61884328
:10207000009908432168C8602068406920F44070D6
:10208000A16908432168486176492068884203D0E5
:1020900075492068884203D1FEF7C0FD814602E001
:1020A000FEF7ACFD8146E069B0F5004F6CD102202F
:1020B0006168A0FB015003461920A9FB007001468E
:1020C0002A463846FEF7D0F86421B0FBF1F04FEA1B
:1020D000001A02206168A0FB01510B461920A9FBE0
:1020E00000712A463846FEF7BFF883460220616831
:1020F000A0FB015003461920A9FB00712A4638466F
:10210000FEF7B2F86421B0FBF1F000EBC00101EB87
:102110000010ABEB8000322101EBC0006421B0FB6A
:10212000F1F000F0F8000AEB400A02206168A0FB21
:10213000015003461920A9FB007001462A46384683
:10214000FEF792F8834602206168A0FB0150034627
:102150001920A9FB00712A463846FEF785F864214C
:10216000B0FBF1F000EBC00101EB0010ABEB800025
:10217000322101EBC0006421B0FBF1F000F0070058
:102180005044216888606AE004206168A0FB015027
:1021900003461920A9FB007001462A463846FEF77F
:1021A00063F8824604206168A0FB015003461920B1
:1021B000A9FB007001462A463846FEF755F864210F
:1021C000B0FBF1F000EBC00101EB0010AAEB8000C6
:1021D000322101EB00106421B0FBF1F000F0F00AB5
:1021E00004206168A0FB017003461920A9FB00517F
:1021F0003A462846FEF738F86421B0FBF1F00AEBC6
:10220000001A04206168A0FB01510B461920A9FBAC
:1022100000712A463846FEF727F883460420616895
:10222000A0FB015003461920A9FB007001462A4675
:102230003846FEF719F86421B0FBF1F000EBC0015D
:1022400001EB0010ABEB8000322101EB00106421A8
:10225000B0FBF1F000F00F00504421688860BDE849
:10226000F88F0000001001400014014010B5034633
:1022700099629A85DA8500205864222083F842000A
:10228000186928B11868C06840F480701C68E06064
:102290001868406940F001001C6860611868C068F7
:1022A00040F020001C68E060002010BD014691F85D
:1022B0004100212828D18868B0F5805F0BD10869DA
:1022C00048B90A6A1088C0F308000B685860086AA9
:1022D000801C086205E00B6A581C086218780B68BD
:1022E0005860C88C401E80B2C88458B90868C0685D
:1022F00020F080000B68D8600868C06840F040009B
:102300000B68D860002070470220FCE72DE9F843F5
:1023100004460D4617469846089E31E0701C70B37F
:10232000FEF7C4FAA0EB0800B04200D816B90320AB
:10233000BDE8F8832068C06800F00400F8B1802D83
:102340001ED0402D1CD020680068C0F3C000B0B182
:1023500000BF00200090206800680090206840685E
:10236000009000BF00BF2046FFF7A5FD0820606475
:1023700000BF002084F8400000BF0120D8E7FFE73D
:10238000206800682840A84201D1012000E0002018
:10239000B842C3D00020CBE710B50248FEF710FFCB
:1023A00010BD00009C01002000BFFEE7024800684D
:1023B000C0F30220704700000CED00E010B50028CB
:1023C00004DB0A07130E054A135406E00A07140E2D
:1023D000034A00F00F031B1FD45410BD00E400E0BB
:1023E00018ED00E070B52DED048BB0EE409AF0EEE4
:1023F000609AB0EE418AF0EE618A04460D46B0EE76
:10240000490AF0EE690A2068FFF72EFC85ED000B03
:10241000B0EE480AF0EE680A6068FFF725FC85ED2B
:10242000020BBDEC048B70BD2DED068BCEB0FEF71C
:102430004FFAFFF7D3FCFFF705FBFFF7D3FBFFF7DE
:10244000F3FBFFF7B3FB4B2501204C904FF0000A44
:102450009FEDB60A8DED4B0A9FEDB40A8DED4A0A49
:102460009FEDB30A10EE109A9FEDB00A10EE107AAD
:102470009FEDB00A10EE108A404600F0F5FC41ECEA
:10248000180B384600F0F0FC41EC190B484600F000
:10249000EBFC41EC1A0B9FEDA84B9FEDA93BB0EE76
:1024A000482AF0EE682AB0EE491AF0EE691AB0EE4A
:1024B0004A0AF0EE6A0A3CA8FFF768FC404600F0C2
:1024C000D3FC41EC180B384600F0CEFC41EC190B64
:1024D000484600F0C9FC41EC1A0B9FED974B9FED6D
:1024E000983BB0EE482AF0EE682AB0EE491AF0EEBA
:1024F000691AB0EE4A0AF0EE6A0A2EA8FFF746FC07
:102500003CA82C902EA82D900EE1FFF7D3F90120C6
:102510004C904FF0000A9FED850A8DED4B0A9FED20
:10252000830A8DED4A0A8848006801281AD10024E0
:1025300004E08648005D80EA0A0A641C082CF8DB87
:102540008248007A504508D100204C907F480068AE
:102550004B907E4840684A9001E001204C9000205A
:10256000794908604C980028CED14A9800F07CFC4C
:1025700041EC180B4B9800F077FC41EC190B28A9A3
:102580002CA8B0EE481AF0EE681AB0EE490AF0EE48
:10259000690AFFF727FF9DED281BB0EE410AF0EE18
:1025A000610A9FED6B1B53EC112B51EC100B00F0EB
:1025B00095F952D09DED281BB0EE410AF0EE610A6C
:1025C00051EC100B00F0C6F98346BBF1000F01DDA2
:1025D000012000E00020064626225F4916A8FDF7EC
:1025E000CFFE5D48C08CADF87E005B48816A2091CB
:1025F000808DADF884005848C08DADF886005648EF
:10260000006B22905448406B239009225249383184
:1026100024A8FDF7B5FE504890F841008DF89900C8
:102620004D4890F842008DF89A004B48406C279036
:10263000584600F097F8482216A9159003A8FDF710
:102640009FFE00211598CDE90001AAB20291F1B2D6
:1026500000231846FDF75EFF00BF9DED2A1BB0EE7C
:10266000410AF0EE610A9FED3A1B53EC112B51EC3D
:10267000100B00F033F952D09DED2A1BB0EE410A49
:10268000F0EE610A51EC100B00F064F98346BBF1E7
:10269000000F01DD012000E00020064626222F4920
:1026A00016A8FDF76DFE2D48C08CADF87E002B48B6
:1026B000816A2091808DADF884002848C08DADF8E6
:1026C00086002648006B22902448406B2390092204
:1026D0002249383124A8FDF753FE204890F84100E4
:1026E0008DF899001D4890F842008DF89A001B481B
:1026F000406C2790584600F035F8482216A91590EE
:1027000003A8FDF73DFE00211598CDE90001AAB20E
:102710000291F1B200231846FDF7FCFE00BF012232
:1027200040210F48FEF7BCF8EFE600000000000073
:102730009A99193FCDCC4C3E000000000000794032
:1027400000000000000079C00000002048010020C7
:10275000000000000000000054010020E4010020FF
:10276000001002400146002901DA484200E0084614
:102770007047000010B591EA030F48BF83F0004393
:1027800000F19082841A71EB030C05D2121943EB0D
:102790000C03001B61EB0C01DFF824E14FEA11543C
:1027A000A4EB135C1EEA430F18BF9EEA445F73D08C
:1027B00023EA0E03DCF1200E21EA045143F48013D6
:1027C00032D322FA0CFE10EB0E0023FA0CFE41EB82
:1027D0000E01CCF1200E03FA0EFE10EB0E0051F1AB
:1027E0000001B1F5801FCCF1200E32D201EB045173
:1027F00012FA0EF2BDE8104058BF7047401C38BFB7
:102800005FEA420218BF7047002814BF20F00100A1
:1028100041F100014FEA410313F5001F38BF704733
:10282000A1F1C04100F0FAB9012A43EB0302ACF177
:10283000200CDCF11F0E32BF4FF0000E23FA0CF318
:1028400010EB030041EB0451B4EB115FD0D0A1EBCE
:10285000045101F5801149085FEA300001EB045191
:102860000ED350F1000038BF12FA0EFE08D1BDE8B9
:102870001040C9E7401C38BF5FEA4202CAD1C3E733
:10288000BDE810404FEA410313F5001F38BF704701
:10289000A1F1C04100F0C2B99EEA445F08D011EA3C
:1028A0005E0FBDE8104004BF01F0004100207047FA
:1028B000BDE8104070B500F063F900BF64FBBE3E98
:1028C0000000E0FF491058BFC1F140415B1058BF04
:1028D000C3F140438B42EFF30080704751EA030C91
:1028E00017D41CF5801F58BFBCF5801F00F106806F
:1028F000994218BF704708BF9042704707D711F53B
:10290000801F58BF13F5801F19D499427047894220
:1029100070471CF5801F08D5BCF5801FF7D58B428A
:1029200018BF704708BF824270474FF4001C1CEB71
:10293000410F38BF1CEB430F01D28B42704770B57B
:1029400000F01EF9922449004FF000514FF08053DF
:10295000FFF7B8BF4FEA41034FEA5353A3F5806333
:10296000D3F11E03C8BFD3F1210C0CDD4FF00042A0
:1029700042EAC12242EA505232FA03FC8CEAE17C7C
:10298000ACEBE1707047102BC4BF0020704703F51B
:10299000787CBCF1FF3F04D06FF0004282EA210056
:1029A000704770B500F0ECF8499224800020704721
:1029B000F2E7000051EA030C17D41CF5801F58BF42
:1029C000BCF5801F00F10680994218BF704708BF10
:1029D0009042704707D711F5801F58BF13F5801F2D
:1029E00019D499427047894270471CF5801F08D559
:1029F000BCF5801FF7D58B4218BF704708BF8242D5
:102A000070474FF4001C1CEB410F38BF1CEB430F09
:102A100001D28B42704770B500F0B2F892244900A1
:102A20004FF000514FF08053FFF74CBFDFF848C123
:102A300070B51CEA111E1EBF1CEA13159EEA0C0F8E
:102A400095EA0C0F00F06F8081EA030423EA4C132F
:102A50004EEAD47E21EA4C1141F4801143F48013F4
:102A6000AE44A1FB024CA0FB0365AEF17F7E36199C
:102A700055EB0C05A1FB034C4CF10003A0FB021C21
:102A800016EB0C06654153F10003094218BF46F0EE
:102A9000010613F4007F0BD14FEA03314FEA0530F2
:102AA000340341EA155140EA16506FF003020AE080
:102AB0004FEAC3214FEAC520F40241EA555140EAEA
:102AC00056506FF0020202EB2E4201EB025585EAEE
:102AD000CE710AD05FEA440C18BF24F0004450F1D4
:102AE000000041F1000120EAD47040F2FE7C624512
:102AF00000D270BDA84214BF4FF080444FF0404454
:102B0000002E08BF0024BEF1806FA8BFA1F1C04114
:102B1000BDE8704080F282804FF0000001F1C041BA
:102B200001F0004170479EEA0C0F0CEA131518BF24
:102B300095EA0C0F06D04FF0000081EA030E0EF06C
:102B4000004170BD00F01CF88900013E00F007B89C
:102B500000F009B84FEA430C5FEA5C5C08D081EAF8
:102B6000030100F05BB84FEA410C5FEA5C5CF6D110
:102B70004FF00000014970470000FF070000F87F98
:102B80000EF1020E2EF0030E5EF8046B364205D4F1
:102B9000012A43EB030515F5001F12D8012841EB6C
:102BA000010C1CF5001F0CD80ED14FEAD17C15F595
:102BB000001F0CEB4C0C0CF1020C08BF4CEBD37C4F
:102BC00004E04FF0080C01E04FEAD37C0CEB4C051D
:102BD00026FA05F606F00706B6F1040C06D20EEB4F
:102BE000860CBDE870404CF0010C6047DFE80CF04B
:102BF000090B02024FF000414FF00000A1F5002147
:102C000070BD19461046012851EB010418BFD4F5D8
:102C1000001484BF002001F0004170BD0808A0F539
:102C200000114FEA3101704753EA010C17D41CF52B
:102C3000801F58BFBCF5801F00F106808B4218BF73
:102C4000704708BF8242704707D713F5801F58BFEF
:102C500011F5801F19D48B4270479B4270471CF5B9
:102C6000801F08D5BCF5801FF7D5994218BF704763
:102C700008BF904270474FF4001C1CEB430F38BF55
:102C80001CEB410F01D2994270470FB40CBC03BC3E
:102C9000FFF7C1BE10B591EA030F48BF83F00043B0
:102CA0003FF570AD841A71EB030C07D212198CF04A
:102CB000004C43EB0C03001B61EB0C01DFF8A4E1BB
:102CC0004FEA1154A4EB135C1EEA430F18BF9EEAAF
:102CD000445F00F0B08023EA6E03524221EA0451BF
:102CE000C3EB6E0338BF5B1EDCF1200E25D322FA46
:102CF0000CFE10EB0E0043FA0CFE41EB0E01CCF182
:102D0000200E03FA0EFE10EB0E0051F10001CCF183
:102D1000200E29D412FA0EF201EB0451BDE8104046
:102D200058BF7047401C1CBFB2F1004F70470028CD
:102D30000CBF491C20F00100704712EB020E43EB60
:102D4000030218BF4FF0010E4EEA4202ACF1200C14
:102D5000DCF11E0E54D943FA0CFE10EB0E0051F1BB
:102D6000FF31CCF11E0ED5D50EF1010E12FA0EFE7A
:102D7000404141EB010101EB445C5FEA5C5C10D92E
:102D800010EBDE7001EB045138BFBEF1004FBDE81F
:102D9000104018BF704700280CBF491C20F00100EC
:102DA000704730D24FEAD42C11F5001124F400649E
:102DB0001BD0B1FA81F20B3AA41AA41ED2F120035F
:102DC000914030FA03F31943904001EBCC71002C91
:102DD00001EB0451BDE81040A8BF704701F1C041AC
:102DE0004FF0000001F000417047B0FA80F310FA94
:102DF00003F100D110BDE41A173C4805C90AE4E705
:102E000001EB045110BD491001EB0451BDE8104025
:102E10004FEA300002E04FF0000170474A0008BF5F
:102E20000042F8D0B2F5001F28BF704701F0004102
:102E30004FF0000070479EEA445F07D011EA5E0F32
:102E4000BDE8104004BF002100207047BDE81040DD
:102E500070B5FFF795FE00BF40DFF63E83F00041FE
:102E6000104670470000E0FF43004FEAD30C4FEAE2
:102E70003C0C43401FBF40070CF1605113F0FE4F64
:102E800070471CF0006F03D100200CF00041704728
:102E90000CF0004343EA507010B540EACC0000F05B
:102EA0000EF800BF000000924FEA0001FFF7B6BE27
:102EB0004FF000414FF00000A1F5002170470EF1E6
:102EC000020E2EF0030E5EF8044B244204D44FEAA7
:102ED0004102B2F17F4F11D84FEA4003B3F17F4F67
:102EE0000CD80ED14FEAD07CB2F17F4F0CEB4C0CDA
:102EF0000CF1020C08BF4CEBD17C04E04FF0080C45
:102F000001E04FEAD17C0CEB4C0324FA03F404F00B
:102F10000704B4F1040C06D20EEB840CBDE810409B
:102F20004CF0010C6047DFE80CF0070802024FF09C
:102F30000040A0F5800010BD0846420018BFD2F145
:102F4000807288BF00F0004010BD4FF04070E1EE8D
:102F5000100A704700000000000000000102030496
:102F60000607080900000000010203048C2F000876
:102F70000000002028000000C4010008B42F000851
:102F80002800002068080000E001000800000000A0
:102F90000000000000000000000000000000000031
:102FA00010000000010000000024F40000000000F8
:042FB000000000001D
:040000050800018965
:00000001FF
