:020000040000FA
:1000000040042020A5010000A9010000AB01000070
:1000100000000000000000000000000000000000E0
:10002000000000000000000000000000AD01000022
:100030000000000000000000AF010000B10100005E
:10004000B3010000DD170000CD220000B301000065
:10005000B3010000B3010000B3010000B3010000D0
:1000600000000000B3010000B30100000000000028
:1000700000000000B3010000B3010000B301000064
:10008000B301000071220000B3010000B3010000C1
:10009000A1220000B30100000000000000000000E9
:1000A000B3010000B30100000000000000000000E8
:1000B000B301000000000000B3010000B301000024
:1000C00000F002F800F042F80CA030C808382418FC
:1000D0002D18671EA246AB4654465D46AC4201D180
:1000E00000F034F87E460F3EB6460FCC0126334270
:1000F00000D0FB1A3343A246AB461847FC2F000042
:100100001C30000000000000103A02D378C878C10B
:10011000FAD8520701D330C830C101D504680C6049
:100120007047000000000000002300240025002686
:10013000103A01D378C1FBD8520700D330C100D5A3
:100140000B6070471FB51FBD10B510BD00F048FF14
:100150001146FFF7F7FF02F03DF900F060FF03B42E
:10016000FFF7F2FF03BC00F0B7FF000070B50546D3
:100170000C46164602E00FCC0FC5103E102EFAD2E8
:10018000082E02D303CC03C5083E042E07D301CCAE
:1001900001C5361F03E021782970641C6D1C761E92
:1001A000F9D270BD06480047FEE7FEE7FEE7FEE72E
:1001B000FEE7FEE703480449024A044B704700008B
:1001C000C1000000400320204004202040032020E4
:1001D000F8B5042A2CD3830712D00B78491C03707E
:1001E000401C521E83070BD00B78491C0370401C27
:1001F000521E830704D00B78491C0370401C521E0A
:100200008B079B0F05D0C91ADF002023DE1B08C90E
:100210000AE0FFF7ABFFF8BD1D4608C9FD401C46CC
:10022000B4402C4310C0121F042AF5D2F308C91A97
:10023000521EF0D40B78491C0370401C521EEAD4A5
:100240000B78491C0370401C012AE4D40978017022
:10025000F8BD01E004C0091F0429FBD28B0701D5BA
:100260000280801CC90700D00270704700290BD0A3
:10027000C30702D00270401C491E022904D3830721
:1002800002D50280801C891EE3E70022EEE70022EF
:10029000DFE70000002203098B4273D3030A8B427D
:1002A00058D3030B8B423CD3030C8B4221D312E077
:1002B00003460B437FD4002243088B4274D30309C7
:1002C0008B425FD3030A8B4244D3030B8B4228D368
:1002D000030C8B420DD30902FF2212BA030C8B428E
:1002E00002D31212090265D0030B8B4219D300E02E
:1002F000090AC30B8B4201D3CB03C01A5241830BB3
:100300008B4201D38B03C01A5241430B8B4201D362
:100310004B03C01A5241030B8B4201D30B03C01A8B
:100320005241C30A8B4201D3CB02C01A5241830A05
:100330008B4201D38B02C01A5241430A8B4201D334
:100340004B02C01A5241030A8B4201D30B02C01A5E
:100350005241CDD2C3098B4201D3CB01C01A5241C5
:1003600083098B4201D38B01C01A524143098B424E
:1003700001D34B01C01A524103098B4201D30B0137
:10038000C01A5241C3088B4201D3CB00C01A52415C
:1003900083088B4201D38B00C01A524143088B4221
:1003A00001D34B00C01A5241411A00D201465241BA
:1003B000104670475DE0CA0F00D04942031000D3D9
:1003C000404253409C46002203098B422DD3030A2E
:1003D0008B4212D38901FC2212BA030A8B420CD33E
:1003E000890192118B4208D3890192118B4204D367
:1003F00089013AD0921100E08909C3098B4201D3E7
:10040000CB01C01A524183098B4201D38B01C01A20
:10041000524143098B4201D34B01C01A5241030997
:100420008B4201D30B01C01A5241C3088B4201D346
:10043000CB00C01A524183088B4201D38B00C01AF3
:100440005241D9D243088B4201D34B00C01A5241CA
:10045000411A00D201465241104663465B1001D357
:100460004042002B00D54942704763465B1000D3E1
:10047000404201B50449002802DC491C084000E064
:100480000846C046C04602BDFFFFFF7F7047704769
:1004900070470000F0B50C46871A9C410D46861A3D
:1004A0009D4103D2C01BA141D21963410D0D1F0D07
:1004B000C94EEC1BAE435CD07F057F0D0026002F9C
:1004C00051D02D05AC46A943DD020123ED0A1B05E1
:1004D0001D4320231B1B24D41746E74038187141C5
:1004E0002F46E740CC199D402818314661410C0D3C
:1004F00027D161449A4013D50023401C5941520032
:100500000ED14008400001224B005205D34207D3D0
:1005100005204007C14201D5B04900E0B04930464E
:10052000F0BD6B00002A00D001229A181F23203C46
:100530001B1B01D5002302E0E540281871410C0D7A
:10054000D7D0012424050919C407CD07400849085C
:10055000E40F28436144002CD5D00024401C6141A5
:100560009A40D0D1CDE76A05520DD9D1C90FC9073C
:10057000D5E79C4D4E00002801D0012400E0002466
:1005800034195F00002A01D0012600E00026BE19C0
:10059000954FAC420CD8AE420AD8B44206D00125E1
:1005A0006D05EC42BCD010461946F0BD9942FCD016
:1005B00000203946F0BDF0B51FB40C460F46811A35
:1005C0009F412546861A9D4106D20125ED076F40C1
:1005D000401ABC4152187B41210D1E0D8D1BAC46AB
:1005E0007D4D8D437ED075056D0D7CD00D05AE46DD
:1005F000AC431B031B0B794D52429D4120236646A1
:100600009B1B14D31746F7403818002600907441FE
:1006100060462F460741E41900989D40281866411E
:1006200016D4714671189A4025D5012320E09318FD
:100630002A466A415200002B00D0521C1E23203E45
:100640009B1B002B61DD3541EE1728186641E8D56C
:10065000001876415B1C9A4000D3401C4B05F318F0
:100660001524E34010D3002B52D071467118D30FDC
:10067000C01802D3491C05B0F0BD0123DB079A4224
:10068000F9D140084000F6E701225205B21801D125
:10069000002853D00123CC0ADB029943891E002A8B
:1006A00008D1020C03D0020C0004103902E002460B
:1006B000002020390023550B05D112020823550BC9
:1006C00001D152010D23550C01D112011B1DD50C76
:1006D00001D192009B1C150D01D152005B1C2025FD
:1006E000EE1A01E02CE022E00546F5401543984063
:1006F000CA1AE10769181305C918002ABBDA0320D2
:1007000040070818C10FC9070FE071466118B2E72A
:10071000F10740080843711071444A000CD00123CE
:100720005B059A42A7D2C90FC9070020A3E7490574
:10073000490D26D1002001E00028F4D100219AE7DC
:10074000284D6600002801D0012100E00021711829
:100750005F00002A01D0012600E00026BE19224FCA
:10076000A94210D8AE420ED8B14208D001256D057D
:10077000E94206D01946A802414010467BE79C4258
:1007800001D0214677E70020394674E710B50C46C2
:100790005C4005D50124E4076340FFF70CFF10BD62
:1007A000FFF778FE10BD30B40C465C4004D5012440
:1007B000E407634030BC6DE630BCFCE670B5012454
:1007C000E40761400D465D4002D4FFF763FE70BD53
:1007D0006340FFF7F0FE70BDFF0700000000F0FF70
:1007E0000000F07F0000E0FF0000F87FF0B5F94D59
:1007F0000C091E092C402E402F468BB0A7437DD0FC
:10080000B543FCD0002E7AD0002CFCD00D465D40C4
:10081000ED0F2543AC1BFF25AD0464190894C502F8
:10082000440DC9022143500DDC0204430120C007DE
:1008300001430443D2020191200C110C00958C4617
:10084000010423468B430A9161460904E24D8A4321
:100850000991010A7D4449198039097805464D43BB
:1008600001266D18F605751B6943C90C640B891CBC
:100870004C436418B5012C1B250C2E04B4434C4387
:100880004D43210C691889090591009DE90701D0A4
:100890000121C90704912C4601996708CD072F4310
:1008A0004C08059DE10B4D432D0C294666467543CA
:1008B00002950D4645432E46029D7D1BB441009591
:1008C0000D465D4301942C0C2F040D465543AE4656
:1008D0002D0C3D43029503947546049C2D04641B26
:1008E000049406D2029C039D641C00267541039566
:1008F000029401AC70CC009F7D1B01E03EE162E1FF
:10090000B44109040095079101940599A408614335
:10091000090C0C464443650BE7040C4666467443D9
:10092000A646640B3C43039502947446049DE4047C
:100930002C1B049406D2029C039D641C0026754166
:100940000395029401AC70CC009F7D1BB4410194CF
:100950000C465C430095650FE7000C465443A646E1
:10096000640F3C43039502947446049DE4002C1BE1
:10097000049406D2029C039D641C002675410395D5
:10098000029401AC70CC009F7D1BB441AE09AF0650
:10099000049DC900AD092F43049DA406AD0604952E
:1009A000079D344369180791059DE10B4D432D0CBC
:1009B00029466646754302950D4645432E46029DDF
:1009C0007D1BB44100950D465D4301942C0C2F0412
:1009D0000D465543AE462D0C3D4302950394754696
:1009E000049C2D04641B049406D2029C039D641C89
:1009F000002675410395029401AC70CC009F7D1BCD
:100A0000B44101948C050694079C890A61180095ED
:100A10000791019C0599A4086143090C0D464543C3
:100A2000680BEF040D46644665436C0B3C43049F22
:100A3000ED047D1BAC4602D20025641C6841009E7B
:100A4000019D371B85410846584301950C46460FCA
:100A5000C5005443600F28436546E4002C1B02D2B6
:100A60000025401C6E41019D3F1AB5412846BD0935
:100A7000800628438446A009BF064E020699A406B4
:100A800076180743079D002068410A99079019438B
:100A90000020099B00906046FF1913434041E20F7C
:100AA00064003A43A4460446D71A8C41A04203D9B5
:100AB0000120009020463A46C70F941840416246F4
:100AC000D20F2243644664000494009CBE46640036
:100AD000D71AA446044602978C417746002F01D1CD
:100AE000A04204D96046401C8446029A2046C40FA6
:100AF000A64694184041049A0546D20F2243644604
:100B00006400D31A8D417146002901D1A84202D94F
:100B100028461A46641C10430122002800D01643C0
:100B200061020020079B891904465C410223002CC6
:100B300002DB491813466441089DCE0A2D145D1945
:100B40004B056705E10A2C050D1908993E43C907B5
:100B50006940002B08D0934006D30022761C5141F7
:100B6000002B01D1760876001C4A002D43DB15428C
:100B700041D0AA433FD030460BB0F0BD06180D4619
:100B80004D41174C7642AC411AD395181C465C4136
:100B9000134A6D42A24113D3012252054C00D442A4
:100BA0000AD15C00D4420BD04B4002D592021143D3
:100BB000E2E749004908DFE75940C90FC90718E0D3
:100BC00000200849D8E7054801420DD10342F7D07B
:100BD000F2E700000000FF078C2100000000F07F1A
:100BE0000000E0FF0000F87F114859400143C012A7
:100BF00041400020C0E70123089A9B069A4205DC89
:100C0000032252078918C90FC907B5E70522520701
:100C10008918074A1143D2125140ADE770B5154605
:100C20001C4602460B4628462146FFF7DFFD70BDF5
:100C3000FFFFFF7F30B50346CA02400D1043164D3B
:100C4000164C0A1502D02043002A06DBAA1A002AF5
:100C500012DDD040FF2A0BDC30BD5205520D01D110
:100C600040004008AA1A07D4D0404042FF2A01DDC4
:100C7000002030BD0028FCDD4A00002B01D00120FF
:100C800000E00020101801225205D042F0D8C81709
:100C9000C043604030BD00001E0400000000008022
:100CA0001F22030C02D10F22000402D0030E03D036
:100CB00004E00020014670470002083A030F01D10A
:100CC0000001121F830F01D18000921E002801DB5A
:100CD0004000521E120551184205C012411810461C
:100CE0007047C10FC90700D040420122920711434B
:100CF000D6E701218907D3E7F0B58B4C0F092546CC
:100D000089B0BD437BD01D092646AE43FAD00E46BE
:100D10005E402740F60F3E43254071D0240121421A
:100D2000FBD0FF24AD19A4042D1B039501252D052F
:100D3000DB02DB0AC9022B43C90A29431E01090150
:100D4000040F130F050121431701880B8203914300
:100D50002D098C46A90B1E438A039543B30B9A03B6
:100D600096433F09BA0B9403A74302962E467E434F
:100D70000497B6464E19D7190C4601965443059769
:100D80007E43371B7646BF1B3601B646BE0B36196F
:100D900000967646BC043719009C01D3641C00946D
:100DA0006400002F01D001263443029E049F754346
:100DB00066467E430496760034196E00341900941A
:100DC000029C019E1C196643751BAE46069465463F
:100DD0004519059C05956C43594375460891691A58
:100DE0000191049E01465143A41B0491611A009C89
:100DF0000791E10605D061090122114302E072E08A
:100E00006EE06109089D00272C0A2D066918049DD3
:100E10007C412A0A2D066918019D6241AC0DAD0284
:100E20006D185441079A910D920255196141029A29
:100E3000644658435443069B059A5A43121A131B9F
:100E40009A0E9B015B187A41010B0005C3185141B2
:100E5000220A200644195A419A4200D2491C012014
:100E60004002814203D315230226F64302E01423F5
:100E70000326F6432020C51AA9401746AF40DA40A2
:100E80000A4320460399D8400914731819055118CC
:100E9000039A3843D2075140AC4009D00122944014
:100EA00006D30022401C5141002C01D140084000D3
:100EB0001E4A934212D3012203989206904207DB06
:100EC0000520400709181A480143C012414004E0B8
:100ED000032040070818C10FC907002009B0F0BD62
:100EE0000020F107FAE705180C464C4111486D4205
:100EF000A04115D394181A465A410E4864429041B5
:100F00000ED301204A004005824209D35A00824292
:100F100006D35940C90F084AC90700201143DDE72D
:100F200000200649DAE700000000FF07FE07000086
:100F3000FFFFFF7F0000E0FF0000F07F0000F87F70
:100F4000F8B5264C4E00069DA6420AD8A64201D10D
:100F5000002806D15E00A64203D8A6420AD1002A84
:100F600008D00D242404254233D02946002000F067
:100F70005EF8F8BD0C461C4311D4994207D0C81A3C
:100F800002D3EFF30080F8BDEFF30080F8BD801AC4
:100F900002D3EFF30080F8BDEFF30080F8BD092421
:100FA0002407E5008B4207D0581A02D3EFF30080E4
:100FB00006E0EFF3008007E0101A03D3EFF30080A0
:100FC000A04303E0EFF30080A043284380F30088B0
:100FD000F8BD009500F042F8F8BD00000000E0FF09
:100FE000754600F045F8AE46050069465346C00810
:100FF000C000854618B020B5FFF7DCF860BCB646E7
:1010000000260027C0C5C0C5C0C5C0C5C0C5C0C575
:10101000C0C5C0C5403D490849008D46704710B560
:101020000446C046C0462046FFF799F810BDC802E6
:1010300012D54803400F002804D0C803C043012143
:1010400088407047EFF30080000100090321090781
:10105000084380F3008870470020704710B50020D7
:101060000249029A00F008F810BD00000000F87F65
:10107000004870472000202010B50C461107090FCA
:10108000092904D00A290AD008290CD104E0114604
:101090000820FFF7CCFF06E0510606D501E0510617
:1010A00001D50120C007214610BDD10607D5010199
:1010B0000909CC084907000E0006044309E0410F66
:1010C00020024907000A0143200E00061D22D141DB
:1010D00001430846E7E7000001491820ABBEFEE7E0
:1010E0002600020070472322D20181507047000081
:1010F00009480168012291430160704711210902EA
:1011000042580123134343507047000002480168CE
:1011100001220A4302607047003100400121C902E8
:10112000824A42507047C0460148006880B270470A
:1011300080825540014800687047C04640330040F7
:1011400066497E4A42507047B0B50A78032313407F
:101150000B4A84580B4D2540EB18A92424061B1973
:101160008350072212064B681340112424020559AC
:101170009543EA180251001949780161B0BDC04693
:1011800008080000FCFFFF0080B51121090240188B
:10119000012109040A4600F024F880BD0148A0217D
:1011A00001607047143100400148A0210160704780
:1011B000183100400120000206490A6802430A6013
:1011C0007047C0460120000202490A6882430A6053
:1011D0007047C04604310040811E091F00BFFCD289
:1011E00070471140036893430B430360704700004E
:1011F000054A83580B4383507047C046024A8358C0
:101200000B4383507047C04648100000952252019E
:1012100081507047014908607047C046A0320A40BB
:10122000014908607047C046A0120A409522520149
:101230008150704780002049425801235B061343C8
:1012400043507047BA4A83580B4383507047C04697
:10125000014A81507047C046D01200000121C902E6
:10126000B74A42507047C046014A8058084070470C
:101270003810000080001049014A42507047C046B3
:1012800081000C0080000C49812242507047C0460A
:1012900080000949002242507047C046800006493C
:1012A000014A42507047C04683000C0080220A4326
:1012B000800001494250704704804240014909685A
:1012C0000840704780330A402722D20180580840E6
:1012D000704700000149194A425070470408000055
:1012E000014908607047C04690320A4001490860D1
:1012F0007047C04690120A40014A81507047C0466C
:10130000901200009D22520183580B438350704776
:10131000012000020E490A6802430A607047C04675
:10132000014887490160704700080F40010000260E
:10133000014802490160704704080F40030000B1F2
:1013400080B50320410202480A46FFF74AFF80BDEC
:1013500000120F4070B50A780C231A4001242403B0
:1013600005196E689E43B2186A60497807221140D9
:10137000035993435918015170BD0000F0B584B072
:1013800001242202344B1968039291431960614988
:101390000D686D04FCD5457E25409E69A6437419F1
:1013A0009C612024045D03252C40DE69AE43341982
:1013B000DC611F4C256805262660466A37681F6277
:1013C00076685E6207262E402660C4697F252D025E
:1013D000DE69AE436406640C3419DC610768456855
:1013E00082680092C66802690192426902929A6913
:1013F000104C14403A07120B2D03ADB2AA18324319
:10140000009D2D072D0D1543019A1543029A154392
:10141000007E2843084A0240101998611868039A10
:101420001043186008688005FCD504B0F0BDC046C4
:10143000001340408D00F0FF72FF0F000648016866
:1014400001229143016070470120000202490A68AD
:1014500082430A607047C04608010B4001480021E2
:101460000160704708030B4080B5012041020F2046
:1014700002022748FFF7B5FE80BDC046F0B5124B0B
:101480001D46083D2E680124A6432E600326360320
:1014900030401F68B743381818601868FF26B043FB
:1014A000C9B24018186028682043286018682107CE
:1014B000002A06D00843186016480168C905FCD503
:1014C000F0BD88431860F0BD10010B4080B50348A3
:1014D00000210322FFF785FE80BDC04600010B40BE
:1014E00080B50B4810213022FFF77BFE80BDC0463F
:1014F00007498860074802689202FCD5012212045D
:101500000B6813430B600168C906FCD57047C046E1
:1015100004010B4004020B40014901224250704774
:1015200008110000024942580123134343507047F9
:10153000281000000121C902014A42507047C046EC
:101540000100002601480068C0B270472090864024
:10155000F0B57A4A82183B4BC31808794E793A4D58
:10156000784C002E23D0202804D00526F601002830
:1015700003D003E0354E002800D18826576F2F4056
:1015800037435767976F2F4037439767566B26400F
:101590005663966B264096630026566596658F26A1
:1015A000F6435F6837405F609F6837409F608E7981
:1015B000096820280BD0002819D1491E5160D76E28
:1015C0002F4088210F43D7661746703719E0491E10
:1015D0005160D16E29401D4F3943D166116F2940AA
:1015E0003943116701214907194D174609E0490898
:1015F0005160D76E2F400521C9010F43D7661746AA
:1016000070373C682C400C433C60D16A4D4C214003
:10161000D162116B214011630021D16411658F21CA
:10162000C943D46F0C40D4671C680C401C6006434F
:10163000BD2030401168074B0B40C018801C106063
:10164000F0BDC0468418000024493E00010400009B
:10165000FFFFFFCF4000FFCFB0B54A68364BC25006
:10166000364A80180A78222A58D8930001A4E358F1
:101670009F46C046131700001D17000013170000F7
:101680001D1700001D1700001D1700001D1700008A
:101690001D1700001D1700001D1700001D1700007A
:1016A0001D1700001D1700001D1700001D1700006A
:1016B0001D170000011700001D1700000117000092
:1016C0001D1700001D1700001D1700001D1700004A
:1016D0001D1700001D1700001D1700001D1700003A
:1016E0001D1700001D1700001D1700001D1700002A
:1016F0001D170000011700001D1700000117000052
:1017000003231B0704689C4301235B07E318036062
:1017100004E003231B0704689C4304600B69C36057
:10172000CB68074C1C40C36A064D1D402B19C36291
:10173000097A11430160B0BD0818000004180000C8
:10174000777702008888FDFF0149024A42507047BE
:1017500004080000030000B1014803210160704744
:101760000051084010B507239B04194092008018CF
:10177000024A84589C436118815010BD3018000003
:1017800010B5029CA400001911431943014A81506D
:1017900010BDC0465018000092008018014A8150C8
:1017A0007047C0461018000010B5012212038318BC
:1017B0000C789C604B7883508978014A815010BD29
:1017C0000C11000080B503480021034AFFF709FD12
:1017D00080BDC0460458084080FF0000F0B585B0C9
:1017E0000320810471480491FFF73EFD07468120E4
:1017F00041046D480391FFF737FD0646002F20D0C6
:1018000002960125AE0469483146FFF75DFD01905F
:10181000EC0466482146FFF757FDA74238D0B7428F
:10182000029E0ED10021C943002800D00D46002899
:1018300000D101462F48426803685B1903604A41A2
:101840004260002E4CD0012435466604564F38467F
:101850003146FFF739FD02900194240638462146AF
:10186000FFF732FDB54228D0A54239D10022D1433D
:10187000029B002B084600D01046002B00D0019997
:101880001C4AD3689468611891604341D36027E093
:101890000022D143019B002B084600D01046002BAC
:1018A000029E00D00121134A536814686118116028
:1018B00043415360002EC6D112E00021C9430028E5
:1018C00003D00A46002803D003E00122002800D1FB
:1018D00001460848C3688468A21882604B41C3600F
:1018E00032480499FFF78AFC2F480399FFF786FCDA
:1018F00005B0F0BD9000202070B5002404E0012563
:101900001D53A41C102C0AD0055B0E5BB542F6D803
:101910006E1EB541165BAE42F3D90025F0E770BDEF
:10192000F0B585B004900120C10303910104029138
:101930008004019000251D4CE80710D12046039932
:10194000FFF7DAFCA80710D520460299FFF76EFCD6
:10195000680710D514480199FFF768FC0FE020468E
:101960000399FFF763FCA807EED420460299FFF71E
:10197000C3FC6807EED40C480199FFF7BDFC0027B3
:101980003E4600F0EDFCC719701C072E0646F8D342
:101990000720401B4000F908049A11526D1C082DC5
:1019A000CAD105B0F0BDC04600000A4000200A4080
:1019B00070B5244E3078244D287001242005FFF79F
:1019C0007DFC411E02468A413270002804D12878ED
:1019D000002801D01D4804701D4E30781D4D287020
:1019E0006005FFF76BFC411E02468A4132700028F9
:1019F0000CD12878002809D0144800210170164D18
:101A000028880521FEF746FC481C2880134E3078B4
:101A1000134D2870A003FFF751FC411E02468A4176
:101A2000327000280DD1287800280AD00D480024F3
:101A3000046006480470204600F048FD204600F08F
:101A400067FD70BDF0012020F1012020AC002020B6
:101A5000F2012020F301202030032020F401202077
:101A6000F5012020A8002020F0B589B0069205914C
:101A7000064600F06DF8A020002103913150A92006
:101A80000121009131543146A03130480191486024
:101A90000F20C243602404960BE000221146049EEE
:101AA000079C325130194160089A921C0834002A70
:101AB00047D00892079405988418208A06998D18B3
:101AC000298A814201D321822882288A218A4900D9
:101AD00008180327394600F04DFE08997618502162
:101AE0007052208A298A49000818394600F042FEBF
:101AF00060217052288A40217052208A3086208AC4
:101B0000002802D1298A0029C7D02F8AB842039918
:101B10000A46049E079CC4D0FFF7EBF802900D46DE
:101B20003846FFF7E6F802460B4602982946FEF7CC
:101B30003AFE02460B46019903C9FEF757FE0246DC
:101B4000AFE700980199C87209B0F0BD0000B0403D
:101B5000B0B50446603040252946FEF798FB204684
:101B60002946FEF794FBA82000212150B0BDF0B516
:101B700083B00D460446FFF7D3FE2646403627467F
:101B800050372346A833204631463A4600F0F8FB4A
:101B9000204631463A462B46FFF7AEFEA02020589D
:101BA0002146A031496800900191214660312246CA
:101BB000303223461033204600F0D4FC03B0F0BD91
:101BC000F0B581B000242646F5B22846214600F043
:101BD000A0F82746002000F056F9781C47B2002FE5
:101BE000F8D5761C072DEFD301B0F0BD10B5012458
:101BF000204600F01AF9204600F026F910BDB0B5D5
:101C0000044600252046A840C0B2C00900F01CF9D7
:101C1000012000F00AF9002000F007F96D1C082DE2
:101C2000F0D1012000F001F9002000F0FEF8B0BD75
:101C300010B50124204600F007F9204600F0F5F821
:101C40000024204600F000F9204600F0EEF810BD18
:101C500010B5002000F0F8F80124204600F0E5F867
:101C6000204600F0F1F810BD80B5FFF7BFFFAE20B1
:101C700000F0F9F8D52000F0F6F8802000F0F3F835
:101C8000A82000F0F0F83F2000F0EDF8D32000F09D
:101C9000EAF8002000F0E7F8402000F0E4F8A12086
:101CA00000F0E1F8C82000F0DEF8DA2000F0DBF800
:101CB000122000F0D8F8812000F0D5F8CF2000F0F5
:101CC000D2F8D92000F0CFF8F12000F0CCF8DB20DA
:101CD00000F0C9F8302000F0C6F8A42000F0C3F8E6
:101CE000A62000F0C0F88D2000F0BDF8142000F010
:101CF000BAF8AF2000F0B7F8FFF762FF80BD002907
:101D000005D0024601205043491EFCD170470120F6
:101D1000704710B50C46B021084300F0A4F8200924
:101D2000103000F0A0F80F20204000F09CF810BD0B
:101D3000F0B581B0154640000090801EC0B2C900C9
:101D40000839CCB22146FFF7E4FF2D010F482818CF
:101D50000F4947180026B85D00F095F8761C082E4C
:101D6000F9D10098401EC0B22146FFF7D2FF0848C3
:101D700040190649441808340025605D00F083F8D6
:101D80006D1C082DF9D101B0F0BDC046642A0000D9
:101D900000FEFFFFF0B583B01C4615460E46002A34
:101DA00005D42B2207463146FFF7C2FF05E02D225E
:101DB00007463146FFF7BCFF6D420295002C1CD050
:101DC0003D4601270195641E35460A2630462146C8
:101DD000FFF795FF0146029800F0CCFC31462E46F5
:101DE000019DFEF757FA30220A43B819C1B22846BE
:101DF000FFF79EFF7F1C002CE5D103B0F0BDF0B5CE
:101E000081B00646107800280DD014460D460027F4
:101E10007919C9B2C2B23046FFF78AFF7F1CF8B207
:101E2000205C0028F4D101B0F0BD80B5014601204E
:101E30004002012902D1FFF753FA01E0FFF7EAF966
:101E40001420FFF7C9F980BD80B5014601200002CA
:101E5000012902D1FFF744FA01E0FFF7DBF9142072
:101E6000FFF7BAF980BD10B50446FFF7E1FE782010
:101E7000FFF7C5FE0020FFF7C2FE2046FFF7BFFEBA
:101E8000FFF7E6FE10BD10B50446FFF7D1FE78203F
:101E9000FFF7B5FE4020FFF7B2FE2046FFF7AFFE8A
:101EA000FFF7D6FE10BD000010B5012084070749DA
:101EB0002046FFF749F900212046FFF714F9204694
:101EC000FFF762F92046FFF719F910BD5430000002
:101ED000F0B581B00920FFF7DBF90A20FFF7D8F948
:101EE000212004263146FFF7E1F901242103D94DD1
:101EF0002846FFF7ADF922200521FFF7D7F9610346
:101F00002846FFF7A5F900273846FFF7C7F920460E
:101F1000FFF7C4F93846FFF78DF92046FFF78AF935
:101F20003120FFF7AFF91920FFF7ACF91820FFF7C0
:101F3000A9F92F20FFF79EF93020FFF79BF91E200B
:101F4000FFF798F92420FFF79DF92320FFF79AF96E
:101F50000D20FFF797F92520FFF794F92B20FFF7C5
:101F600089F92C20FFF786F92620FFF783F9352021
:101F7000FFF780F91F20FFF785F92020FFF782F98E
:101F80002720FFF77FF9174F28463946FFF73EF91C
:101F900028463946FFF75CF928463146FFF7B2F983
:101FA000660428463146FFF723F928463146FFF7F5
:101FB00049F9A94D0C4E28463146FFF727F9284626
:101FC0003146FFF745F910212846FFF79BF9A40495
:101FD00028462146FFF70CF928462146FFF732F93B
:101FE00001B0F0BD80C005000083410010B59F4CDA
:101FF00009492046FFF7A8F804212046FFF773F8A7
:102000002046FFF7C1F8FFF7C9F8FFF7CDF82046E3
:10201000FFF774F810BDC0465C30000010B5914C5D
:1020200009492046FFF7C0FB08492046FFF714FB8B
:102030002046FFF777FA1420032100F071F92046BB
:10204000FFF76AFA10BDC046643000006830000037
:1020500080B504480449FFF77DF9FFF771F9FFF7F0
:1020600057F980BD00000F407C300000F0B581B012
:102070007A4C1B492046FFF797FB1A492046FFF789
:1020800067FAFFF79FFB00250095204629462A4660
:102090002B46FFF775FB204629462A46FFF762FBD1
:1020A0003126204631462A46FFF776FB0127009766
:1020B000204629462A462B46FFF762FB2046294642
:1020C0003A46FFF74FFB204631463A46FFF764FB9E
:1020D0002046FFF721FAFFF73FFB01B0F0BDC046F5
:1020E0007E3000008430000010B55F4C0949204666
:1020F000FFF75AFB08492046FFF7AEFA2046FFF7E4
:1021000011FA0220012100F00BF92046FFF704FA32
:1021100010BDC0468C3000009030000010B5FFF7B5
:102120009DF9FFF7A1F9FFF7D1F9FFF787F9FFF75D
:102130008BF9032000030A2101242246FFF79EF9B0
:102140000648FFF71BF9FFF7CBF90020FFF7D0F99E
:102150000221204600F0E4F810BDC046A430000083
:1021600010B53F4C09492046FFF71EFB08492046A1
:10217000FFF772FA2046FFF7D5F91120022100F08F
:10218000CFF82046FFF7C8F910BDC046CC3000009C
:10219000D030000080B500F01DF8FFF799FEFFF782
:1021A000BDFFFFF763FFFFF7DBFFFFF737FFFFF729
:1021B0009BFFFFF74DFFFFF777FEFFF717FF9C2010
:1021C000024900220A5402490A5480BDB00020206E
:1021D00050012020F0B581B01E48FFF77BF81E4863
:1021E000FFF778F8DB48FFF7AFFA1D48FFF7ACFAC6
:1021F0001C4C2046FFF7A8FA1B4D2846FFF7A4FA0F
:10220000FFF796F8012086073046FEF799FF174F33
:102210003846FEF795FF0F48FFF720F80E48FFF706
:102220001DF8CC48FFF786F90D48FFF783F92046E3
:10223000FFF780F92846FFF77DF9FFF771F8304680
:10224000FEF76CFF3846FEF769FF1020FEF7C4FF6B
:1022500001B0F0BD00000A4000200A4000400840E4
:102260000080864000A08640000009400020004019
:1022700080B5FFF767F9012810D11C48C168816853
:102280000022C260826043680368426002600361AA
:10229000416158188B490A688018086080BDC046A3
:1022A00010B5FFF785FB854800888549414385487F
:1022B0000068884208DB844800240470204600F04F
:1022C00005F9204600F024F910BDC04680B57E48CF
:1022D0000078002808D0054801694069E14A51604A
:1022E000E149486000F0A6F980BDC046900020207A
:1022F000002805D41F2108400121814001480160C8
:102300007047C04680E200E0002805D41F21084045
:1023100001218140014801607047C04600E100E0B2
:10232000002805D40322034693430C4A9A1806E07A
:102330000F220240083A03239A43074BD218800722
:10234000C00E8901C9B28140FF23834010689843C1
:10235000084310607047C0461CED00E000E400E058
:1023600080B5FEF7D3FEFEF725FFFEF7E3FE00285B
:10237000FBD1FEF727FFFEF7BBFEFEF7D5FE80BDC3
:1023800070B500240AE00126A6401D7835431D7073
:10239000801C891C921C641C082C0BD005880E889C
:1023A000B542F0D81688B542F2D20126A6401D7873
:1023B000B543ECE770BD10B501242046FFF798FF48
:1023C0002046FFF795FF2046FFF79EFF2046FFF7C8
:1023D0009BFF10BD82B000F063F9FFF7DBFE2F48D2
:1023E0002F49304AFFF740FBFFF7E5FF0226009632
:1023F0009C481425002739462A463B4600F036F90A
:102400000096994839462A463B4600F02FF9FFF7D7
:102410002BFC254D2F72254825492960686001272E
:10242000304639462A46FFF7EAFC22490726284665
:102430003246FDF7CDFE032039462A46FFF7DFFC82
:102440001D4928463246FDF7C3FE042039462A4678
:10245000FFF7D5FC194C1C4D1048C349FFF787FB0B
:102460002288174842430120052701463B46FFF7D3
:1024700091FC144802680226092130463B46FFF7CA
:1024800089FC2288032006213346FFF783FC2A7843
:10249000042007213346FFF77DFCDDE78002202082
:1024A0001000202000002020600220206465723A85
:1024B000656E636FE4300000EB30000030032020D5
:1024C00070300000A8002020AC002020B0B50446E9
:1024D00001218803CD03012C05DBFEF707FF284609
:1024E000FEF79EFE0DE0002C05D4FEF7FFFE284609
:1024F000FEF7FCFE05E0FEF793FE2846FEF7F6FE2B
:102500006442144800222146FFF746F9B0BDC04698
:10251000B0B50446012005048020012C05DBFEF740
:10252000E5FE2846FEF77CFE0DE0002C05D4FEF704
:10253000DDFE2846FEF7DAFE05E0FEF771FE2846CE
:10254000FEF7D4FE6442034801222146FFF724F936
:10255000B0BDC04600400840434A11604149086090
:102560007047C046F0B587B0069305920E460490BA
:102570000C980D9903900291FEF75CFB01900027E7
:102580003D4605E006994853AD1C0836102D1ED077
:102590000598405B0499495B81423C460BD3081A7D
:1025A000FEF79FFB02460B4603CE083EFEF7A4FB58
:1025B000FEF740FB04462046FEF79BFB039A029B76
:1025C00000F0D3F900280198DCD12046DAE707B003
:1025D000F0BDF0B506C8891A0160826A0838002A81
:1025E00014D0012A22D106460C367CCE4D4385629A
:1025F0008F1A6743076252008A1AD21872434262E6
:10260000EB199A18C36AD218C2620FE00446143458
:102610001CCC4A4302624B43856AEB188362C5684F
:102620004D1B654345629A185219C262C268C16067
:102630000261F0BDB0B500F04BF80A4C2046FFF740
:10264000C8FF094D2846FFF7C4FF204600F016F8E2
:10265000284600F013F8E06AFFF738FFE86AFFF752
:1026600057FFB0BDF80120202C02202010B5029C9D
:1026700042618361C461016310BD0000C26A064902
:102680008A4201DD491CC16204494A1CC36A934263
:1026900000DAC1627047C046E703000018FCFFFF84
:1026A00010B511242046FFF723FE2046FFF72CFE2D
:1026B00002242046FFF71CFE2046FFF725FE1424C7
:1026C0002046FFF715FE2046FFF71EFE10BD000056
:1026D00070B5254841898288511A03234B430189EB
:1026E000C288541A64001B19848945882C1BA400D5
:1026F0001B19C4890588281B052646439819012300
:10270000002D04D1012C02D100251C4605E0012D2D
:1027100007D1002C05D100241D46144B1D70144B0D
:102720001C70002805D01421091A1430FFF714FF7B
:1027300070BD114309D00E48007801280AD113203A
:10274000C0431421FFF708FF70BD14200146FFF7B6
:1027500003FF70BD05480078012804D11320C14350
:102760001420FFF7F9FE70BD8000202038032020E0
:102770003403202043088B421AD3002203098B42E2
:1027800079D3030A8B425ED3030B8B4242D3030CF3
:102790008B4227D30902FF2212BA030C8B4202D3C9
:1027A0001212090203D0030B8B4233D31AE0D3E099
:1027B000411A8041401C704703460B4371D44308C3
:1027C0008B42F5D3002203098B4254D3030A8B4278
:1027D00039D3030B8B421DD3030C8B4202D3944697
:1027E0006EE0090AC30B8B4201D3CB03C01A5241DE
:1027F000830B8B4201D38B03C01A5241430B8B4294
:1028000001D34B03C01A5241030B8B4201D30B037C
:10281000C01A5241C30A8B4201D3CB02C01A5241A3
:10282000830A8B4201D38B02C01A5241430A8B4266
:1028300001D34B02C01A5241030A8B4201D30B024F
:10284000C01A5241CDD2C3098B4201D3CB01C01A69
:10285000524183098B4201D38B01C01A5241430973
:102860008B4201D34B01C01A524103098B4201D361
:102870000B01C01A5241C3088B4201D3CB00C01ACE
:10288000524183088B4201D38B00C01A5241430846
:102890008B4201D34B00C01A5241411A52411000E1
:1028A0007047CA0F00D04942031000D34042534042
:1028B00000229C4603098B422DD3030A8B4212D37C
:1028C0008901FC2212BA030A8B420CD389019211AE
:1028D0008B4208D3890192118B4204D3890137D0EE
:1028E000921100E08909C3098B4201D3CB01C01AC0
:1028F000524183098B4201D38B01C01A52414309D3
:102900008B4201D34B01C01A524103098B4201D3C0
:102910000B01C01A5241C3088B4201D3CB00C01A2D
:10292000524183088B4201D38B00C01A5241D9D245
:1029300043088B4201D34B00C01A5241411A00D2C6
:1029400001465241104663465B1000D34042704737
:1029500063465B1000D3404201B50021004201D024
:10296000C9430846C046C04602BD10B500F008F88D
:10297000EFF300804000800F012800D0002010BD40
:1029800070B501252D050C001C4310D4EC4206D473
:10299000AC420AD4994200D070BD904270BDE94269
:1029A00017D4EB4215D4994270BD894270BDEC42F8
:1029B00006D5AC42F9D58B4200D070BD824270BDC5
:1029C0006D004C00EC4204D25C00EC4201D28B4220
:1029D00070BD034C30B4FEF7B3FA30BC70BD00BF1D
:1029E0001900130480807F7E7D7C7B7A79787776EE
:1029F00076757473727171706F6E6E6D6C6C6B6ADC
:102A00006A69686867666665646463636261616079
:102A1000605F5F5E5E5D5D5C5C5B5B5A5A595958F6
:102A20005857575656555555545453535252525160
:102A3000515050504F4F4F4E4E4D4D4D4C4C4C4BB6
:102A40004B4B4A4A4A4949494848484747474746FD
:102A50004646454545444444444343434342424239
:102A60004241414100000000000000000000000061
:102A700000000000000000F800000000000000332B
:102A80003000000000100C06100C060000000000D2
:102A90000000000040C07840C0784000043F0404BB
:102AA0003F040400007088FC08300000001820FF7C
:102AB000211E0000F008F000E018000000211C03B7
:102AC0001E211E0000F00888700000001E21232433
:102AD0001927211010160E00000000000000000051
:102AE00000000000000000E01804020000000007E1
:102AF0001820400000020418E000000000402018E8
:102B000007000000404080F0804040000202010FBA
:102B100001020200000000F0000000000101011F9E
:102B200001010100000000000000000080B0700002
:102B30000000000000000000000000000001010192
:102B40000101010100000000000000000030300021
:102B500000000000000000008060180400601806FB
:102B60000100000000E010080810E000000F102035
:102B700020100F00001010F8000000000020203F7F
:102B80002020000000700808088870000030282409
:102B900022213000003008888848300000182020AA
:102BA00020110E000000C02010F8000000070424CF
:102BB000243F240000F80888880808000019212014
:102BC00020110E0000E0108888180000000F11206E
:102BD00020110E0000380808C83808000000003F27
:102BE000000000000070880808887000001C222186
:102BF00021221C0000E010080810E0000000312233
:102C000022110F00000000C0C000000000000030D2
:102C10003000000000000080000000000000806024
:102C200000000000000080402010080000010204A5
:102C3000081020004040404040404000040404048C
:102C40000404040000081020408000000020100848
:102C500004020100007048080808F000000000307D
:102C600036010000C030C828E810E000071827240B
:102C700023140B000000C038E0000000203C2302B9
:102C80000227382008F8888888700000203F20201C
:102C900020110E00C030080808083800071820204E
:102CA0002010080008F808080810E000203F202045
:102CB00020100F0008F88888E8081000203F202026
:102CC0002320180008F88888E8081000203F20001A
:102CD00003000000C0300808083800000718202052
:102CE000221E020008F808000008F808203F210111
:102CF00001213F20000808F8080800000020203FBC
:102D00002020000000000808F8080800C08080802B
:102D10007F00000008F888C028180800203F200124
:102D20002638200008F8080000000000203F20207E
:102D30002020300008F8F800F8F80800203F003F95
:102D4000003F200008F830C00008F808203F2000AD
:102D500007183F00E01008080810E0000F102020BE
:102D600020100F0008F808080808F000203F210193
:102D700001010000E01008080810E0000F182424EA
:102D800038504F0008F8888888887000203F20005D
:102D9000030C302000708808080838000038202113
:102DA00021221C00180808F8080818000000203F1D
:102DB0002000000008F808000008F808001F202084
:102DC00020201F000878880000C838080000073855
:102DD0000E010000F80800F80008F800033C0700A6
:102DE000073C0300081868808068180820302C030E
:102DF000032C30200838C800C83808000000203FE5
:102E00002000000010080808C838080020382621D3
:102E100020201800000000FE020202000000007FD7
:102E200040404000000C30C00000000000000001E5
:102E30000638C00000020202FE00000000404040D0
:102E40007F000000000004020202040000000000F5
:102E50000000000000000000000000008080808072
:102E6000808080800002020400000000000000005A
:102E700000000000000080808080000000192422F3
:102E800022223F2008F8008080000000003F11202F
:102E900020110E000000008080800000000E112034
:102EA00020201100000000808088F800000E112012
:102EB00020103F200000808080800000001F222220
:102EC00022221300008080F0888888180020203F8C
:102ED000202000000000808080808000006B94949F
:102EE0009493600008F8008080800000203F21005B
:102EF00000203F2000809898000000000020203F24
:102F000020200000000000809898000000C0808011
:102F1000807F000008F8000080808000203F2402AD
:102F20002D302000000808F8000000000020203F9D
:102F3000202000008080808080808000203F200052
:102F40003F20003F8080008080800000203F2100E3
:102F500000203F200000808080800000001F202093
:102F600020201F00808000808000000080FFA120C2
:102F700020110E000000008080808000000E1120D3
:102F800020A0FF80808080008080800020203F2162
:102F90002000010000008080808080000033242415
:102FA00024241900008080E0808000000000001FC1
:102FB000202000008080000000808000001F202072
:102FC00020103F20808080000080808000010E3033
:102FD0000806010080800080008080800F300C0394
:102FE0000C300F0000808000808080000020312E97
:102FF0000E312000808080000080808080818E7073
:103000001806010000808080808080000021302C24
:103010002221300000000000807C0202000000003D
:10302000003F404000000000FF00000000000000E2
:10303000FF0000000002027C800000000040403FD2
:10304000000000000006010102020404000000006C
:103050000000000001050000000000030105000061
:103060000000000308070900020000001F4E0000D6
:103070000100000000000000000000000800080738
:1030800000000000E80300002000010008076300C2
:1030900002000000E7030000010000000000000043
:1030A000000000000100000000000000000000001F
:1030B00000000000000000001000000000010000FF
:1030C00003000000000000003400C44108071300A2
:1030D000020000000F2700000100000000000000B7
:1030E0000000000074696D65733A00737461727456
:1030F0003A0000000000000018310000000020200D
:1031000020000000080100003831000020002020CD
:1031100020040000280100005F030B014E0149025A
:10312000EE046104D8022402740B08080309700934
:08313000C30B710B02098B08AF
:04000005000000C136
:00000001FF
